:020000040000FA
:060000000A128A110C280F
:10000800FE00030EF0000A08F1000A128A11EA2E17
:100018000A128A110F280A128A1142270A128A1113
:10002800DF000A128A1143270A128A11E00083139B
:100038002030840045300A128A113A270A128A11A0
:10004800FA01FB0183010A128A112A288316031375
:1000580088018030870083120313880187010A1200
:100068008A11D9240A128A11053083120313DC007D
:100078005C08F2004830DD005D08F30004300A1225
:100088008A11DB210A128A11F501F50A01300A12D8
:100098008A11EF250A128A1101300A128A11A32641
:1000A8000A128A110A128A1117270A128A11831250
:1000B80003138C1E6028612871280A128A115026A1
:1000C8000A128A11073083120313DD007C30DC002A
:1000D800DC0B6C28DD0B6C280000831203130C1E4C
:1000E8007628772881287A08DC005C08F2007B08EB
:1000F8000A128A11A3250A128A11831203136003B4
:10010800031D872888288429672948300A128A11FC
:10011800C8260A128A1183120313DC005C08FB004C
:1001280000300A128A115E230A128A11FF308312E4
:100138000313DC005C08F8000530DD005D08F900F9
:100148007B080A128A11BA220A128A11831203132F
:10015800DE005E08C400F50102300A128A11EF259C
:100168000A128A11831203134408840083130008B7
:100178000A128A1140250A128A110A128A112B279B
:100188000A128A112E300A128A112B270A128A1192
:10019800831203134408023E8400831300080A12E2
:1001A8008A1140250A128A110A128A112B270A126B
:1001B8008A11831203134408043E84008313000841
:1001C8000A128A1140250A128A110A128A112B274B
:1001D8000A128A1156300A128A112B270A128A111A
:1001E8007A2948300A128A11C8260A128A118312FB
:1001F8000313DC005C08FA0001300A128A115E233E
:100208000A128A11FF3083120313DC005C08F8001D
:100218000530DD005D08F9007A080A128A11BA2251
:100228000A128A1183120313DE005E08C300063027
:10023800DC005C08F50002300A128A11EF250A1268
:100248008A118312031343088400831300080A12D7
:100258008A1140250A128A110A128A112B270A12BA
:100268008A112E300A128A112B270A128A11831238
:1002780003134308023E8400831300080A128A11FC
:1002880040250A128A110A128A112B270A128A118A
:10029800831203134308043E8400831300080A12E0
:1002A8008A1140250A128A110A128A112B270A126A
:1002B8008A1156300A128A112B270A128A117A29B2
:1002C800FA01FB017A291F0CDC005C0C0F39DD00F8
:1002D800DE015E08003A0319722964295D08003AB4
:1002E8000319F528053A0319892864298312031389
:1002F800E0010C13831603130C17831203139F14C6
:100308003E080A128A11E9230A128A11831203137A
:10031800DC005C08C2000D30DC005C08F50002302F
:100328000A128A11EF250A128A118312031342084E
:100338008400831300080A128A1140250A128A11C0
:100348000A128A112B270A128A11831203134208F0
:10035800023E8400831300080A128A1140250A12FB
:100368008A110A128A112B270A128A11831203137F
:100378004208043E8400831300080A128A114025AB
:100388000A128A110A128A112B270A128A117B086B
:1003980083120313DC005C08F2007A080A128A113F
:1003A800A3250A128A115B280A128A110C28F60062
:1003B800FC293F30831203139F051E2A831203135F
:1003C8001F083F3940389F001E2A831203131F0855
:1003D8003F3980389F001E2AC030831203139F04C0
:1003E8001E2A831203131F083F3940389F001E2A14
:1003F8007608F400F5017508003A0319042AF5296E
:100408007408013A0319DD29053A0319E2290C3A5F
:100418000319E9291C3A0319F029F529831603134E
:100428009F13842A831603139F17842A83160313A2
:100438009F13842A7308F400F5017508003A03191C
:10044800262A1A2A7408483A0319122A043A031960
:10045800162A1A2A0514831603170814C3308312A0
:1004680003139F05A62A851483160317881483127D
:1004780003131F08C33904389F00A62A05158316DD
:1004880003170815831203131F08C33908389F0080
:10049800A62A8515831603178815831203131F08C8
:1004A800C3390C389F00A62A851683160317081629
:1004B800831203131F08C3390C389F00A62A091496
:1004C800831603178816831203131F08C3391438B9
:1004D8009F00A62A8914831603170817831203138B
:1004E8001F08C33918389F00A62A09158316031751
:1004F8008817831203131F08C3391C389F00A62AC4
:100508007208F400F5017508003A03198C2AA62A26
:100518007408003A03192E2A013A0319372A033AB4
:100528000319422A013A03194D2A073A0319582A8E
:10053800013A0319632A033A03196E2A013A031987
:10054800792AA62A83121F140C13831603130C1777
:100558000B178B172730F500F530F400F40BB22A8F
:10056800F50BB22A831203139F1408008312031396
:10057800C9004A3084000630FF0083138001840AD2
:10058800FF0BC12A4908C500C6014508F200460804
:10059800F3007908C700C8014708F4004808F500C7
:1005A8000A128A117E260A128A117308831203130B
:1005B800D1007208D000EF2A4A08013ECA004B0851
:1005C8000318013E003ECB0078085002D0005108C5
:1005D800031C5103D1007808C500C6014608510222
:1005E800031DF82A450850020318FB2AFC2AE02AB2
:1005F8005108F3005008F2000A30F4000030F5000A
:100608000A128A117E260A128A11730883120313AA
:10061800D1007208D0001F2B4C08013ECC004D08B9
:100628000318013E003ECD0078085002D000510862
:10063800031C5103D1007808C500C60146085102C1
:10064800031D282B4508500203182B2B2C2B102B8D
:100658005108F3005008F2000A30F4000030F500A9
:100668000A128A117E260A128A117308831203134A
:10067800D1007208D0004F2B4E08013ECE004F0823
:100688000318013E003ECF0078085002D000510800
:10069800031C5103D1007808C500C6014608510261
:1006A800031D582B4508500203185B2B5C2B402B6D
:1006B8004A300800F400C62B83160313051483166A
:1006C80003170814C330831203139F05E82B8316FE
:1006D80003138514831603178814831203131F0842
:1006E800C33904389F00E82B8316031305158316B6
:1006F80003170815831203131F08C33908389F000E
:10070800E82B8316031385158316031788158312A0
:1007180003131F08C3390C389F00E82B83160313F3
:100728008516831603170816831203131F08C33987
:100738000C389F00E82B831603130914831603173C
:100748008816831203131F08C33914389F00E82B37
:1007580083160313891483160317081783120313C8
:100768001F08C33918389F00E82B8316031309158F
:10077800831603178817831203131F08C3391C38FD
:100788009F00E82B7408F200F3017308003A03197C
:10079800CE2BE82B7208003A0319602B013A031993
:1007A8006B2B033A0319782B013A0319852B073A67
:1007B8000319922B013A03199F2B033A0319AC2B07
:1007C800013A0319B92BE82B080083120313DB0045
:1007D800543084000630FF0083138001840AFF0B25
:1007E800F02B6430C5000030C6005B08CD00CE0198
:1007F8004D08C7004E08C8000A128A1170240A1250
:100808008A11831203134608D5004508D4005408FA
:10081800CD004D08DA000A30C5000030C6005A087D
:10082800CD00CE014D08F2004E08F3009C30F400D4
:10083800FF30F5000A128A117E260A128A118312E5
:1008480003135B087207C70073080318730AC8000C
:100858000A128A1170240A128A1183120313460895
:10086800D7004508D6005608CD004D08D3005A08D1
:10087800CD00CE014D08F2004E08F3009C30F40084
:10088800FF30F5000A128A117E260A128A11831295
:1008980003135B087207CF0073080318730AD000AC
:1008A8005308D100D2015108F2005208F300F63083
:1008B800F400FF30F5000A128A117E260A128A1106
:1008C8007208831203134F07D80073080318730ABA
:1008D8005007D9005430080083120313CA01C61FF9
:1008E800762C772C7E2CC509C609C50A0319C60AB9
:1008F800CA01CA0AC81F812C822C8B2CC709C809B7
:10090800C70A0319C80A0130F8007808CA06CB01DB
:10091800CC01450846040319922C932CCA2CC90112
:10092800C90AA12C01300310C50DC60DFF3E031DD9
:10093800972C0130F8007808C907C61FA42CA52CED
:10094800962C01300310CB0DCC0DFF3E031DA62CB9
:1009580046084802031DB22C45084702031CB52C63
:10096800B62CBD2C4508C7024608031CC803C8029C
:100978004B1401300310C60CC50CFF3E031DBE2CE2
:100988000130C902031DC92CCA2CA52C4A08031919
:10099800CE2CCF2CD42CCB09CC09CB0A0319CC0AEA
:1009A8004C08C6004B08C50008001A30F600F8309D
:1009B800F500F50BDD2CF60BDD2C000030300A12AB
:1009C8008A1121260A128A110730F6007D30F500B7
:1009D800F50BEC2CF60BEC2C30300A128A11212680
:1009E8000A128A112130F500F50BF82C30300A1262
:1009F8008A1121260A128A112130F500F50B022DE1
:100A080038300A128A1121260A128A111130F5008B
:100A1800F50B0C2D000008300A128A1121260A1243
:100A28008A111130F500F50B172D000001300A125C
:100A38008A1121260A128A110430F600E430F500E2
:100A4800F50B242DF60B242D000006300A128A110E
:100A580021260A128A111130F500F50B312D0000FC
:100A68000C300A128A1121260A128A111130F50057
:100A7800F50B3C2D00000800F400792D3030F20011
:100A88007208F500A12D3130F2007208F500A12D91
:100A98003230F2007208F500A12D3330F2007208EE
:100AA800F500A12D3430F2007208F500A12D353083
:100AB800F2007208F500A12D3630F2007208F50038
:100AC800A12D3730F2007208F500A12D3830F20060
:100AD8007208F500A12D3930F2007208F500A12D39
:100AE800D630F2007208F500A12D7408F200F30167
:100AF8007308003A0319812D742D7208003A0319FE
:100B0800422D013A0319472D033A03194C2D013A96
:100B18000319512D073A0319562D013A03195B2D74
:100B2800033A0319602D013A0319652D0F3A031989
:100B38006A2D013A03196F2D742D75080800F40009
:100B48007408E23EF3007308F40074088312031378
:100B58009900B32DA630F300F30BB02D00008316D7
:100B68000313981CB82DB92DAE2D2C308312031306
:100B78009900C32DA630F300F30BC02D0000831697
:100B88000313981CC82DC92DBE2D7208E23EF30030
:100B98007308F2007208831203139900D82DA63047
:100BA800F300F30BD52D000083160313981CDD2DDD
:100BB800DE2DD32D6E30831203139900E82DA63055
:100BC800F300F30BE52D000083160313981CED2D9D
:100BD800EE2DE32D0800F800102E7508803EF60073
:100BE8007608F90079080A128A1121260A128A1150
:100BF800202E7508C03EF6007608F90079080A121A
:100C08008A1121260A128A11202E80300A128A118E
:100C180021260A128A11202E7808F600F701770893
:100C2800003A0319182E092E7608013A0319F12DF6
:100C3800033A0319FD2D092E0800F400831203134B
:100C480007100730F3007D30F200F20B292EF30B6A
:100C5800292E8312031387140730F3007D30F20026
:100C6800F20B342EF30B342E74088312031388000E
:100C78000730F3007D30F200F20B402EF30B402ECC
:100C88008312031387100730F3007D30F200F20B54
:100C98004B2EF30B4B2E0800831203131A08F20095
:100CA8007208F4000730F3007D30F200F20B5A2E80
:100CB800F30B5A2E831203131A08F2007208F40079
:100CC8006D2E0130F2007208BE077D2E0130BE0283
:100CD8007D2E7408F200F3017308003A0319752E8B
:100CE8007D2E72082B3A0319652E063A03196A2ECF
:100CF8007D2E0800F601F701721C832E842E8A2EA1
:100D08007408F6070318F70A7508F7070130031087
:100D1800F40DF50DFF3E031D8B2E01300310F30C6F
:100D2800F20CFF3E031D922E72087304031D9D2EC4
:100D38009E2E802E7708F3007608F2000800F60051
:100D4800F401F501BA2E7408760784000A128A1194
:100D580002270A128A110A128A112B270A128A11EB
:100D68000130F4070318F50A0030F5077408760710
:100D780084000A128A1102270A128A11003A031DF6
:100D8800C62EC72EA72E0800F400D82E83120313F0
:100D98001E08F2007208F500E82E831603131E08D9
:100DA800F2007208F500E82E7408F200F3017308E7
:100DB800003A0319E02ECA2E7208483A0319CA2EBF
:100DC800043A0319D12ECA2E75080800831203139A
:100DD8000C1FEF2EF02EFB2E831603130C1FF52E7F
:100DE800F62EFB2E0C1383120313E001E00A7108A0
:100DF8008A00700E8300FE0E7E0E090007308A00FE
:100E08000408840A820700345334313420342034EF
:100E180020342034533432342034203420342034E5
:100E28005334333400348316031318131812181567
:100E380083160317871119308316031399009A0133
:100E48009816831203139817181318160800F3003E
:100E58008312031307147308880087140D30F200F7
:100E6800F20B342F831203138710080064008001EB
:100E7800840A04060319003404063B2F4534013460
:04400E00D420FF3F7C
:00000001FF
