:020000040000FA
:100000000A128A11FC2F00308A000408840A820731
:10001000003465346C3465346334743472346F3452
:1000200053346F346D34653420344C3443344434A9
:100030002034483465346C346C346F342034573495
:0A0040006F3472346C346434003401
:100CB00001300A128A116D260A128A1108001830B2
:100CC0000A128A116D260A128A1108001C300A12B3
:100CD0008A116D260A128A110800F3008312031389
:100CE000061373080A128A11E1260A128A11831266
:100CF000031386170730F2007D30F100F10B7E2ED2
:100D0000F20B7E2E8312031386130800F300831266
:100D10000313061773080A128A11E1260A128A11B0
:100D20008312031386170630F2003030F100F10B06
:100D3000972EF20B972E00008312031386130800E0
:100D4000F5007503031DA52EA62EAE2E7408803E59
:100D50000A128A116D260A128A11BB2E02307506FC
:100D6000031DB32EB42EBB2E7408C03E0A128A1186
:100D70006D260A128A110800F600F401F501D32E3F
:100D80007408760784000A128A1103200A128A1155
:100D90000A128A1186260A128A110130F4070318F2
:100DA000F50A0030F5077408760784000A128A11E4
:100DB00003200A128A11003A031DDF2EE02EC02EF6
:100DC0000800F000701CE52EE62EEA2E83120313B5
:100DD0000714ED2E831203130710F01CF02EF12ED2
:100DE000F32E8714F42E8710701DF72EF82EFA2E8E
:100DF0000715FB2E0711F01DFE2EFF2E012F871564
:100E0000022F8711701E052F062F082F0716092F96
:100E10000712F01E0C2F0D2F0F2F8716102F871281
:100E2000701F132F142F162F0717172F0713F01FDC
:100E30001A2F1B2F1D2F87171E2F87130800003016
:100E40000A128A11E1260A128A1183120313061369
:100E50002130F5007630F400F40B2C2FF50B2C2FFD
:100E6000000030300A128A116D260A128A110730EA
:100E7000F5007D30F400F40B3B2FF50B3B2F3030A9
:100E80000A128A116D260A128A111430F50079307F
:100E9000F400F40B492FF50B492F4E2F30300A1276
:100EA0008A116D260A128A1138300A128A116D26AB
:100EB0000A128A110C300A128A116D260A128A113E
:100EC00001300A128A116D260A128A1106300A129E
:100ED0008A116D260A128A110800831603138601EF
:100EE00087010A128A111F270A128A11F401F40AD3
:100EF00001300A128A11A0260A128A1101300A1240
:100F00008A11BC260A128A11FA01FB010630F90087
:100F10001330F800AD30F700F70B8C2FF80B8C2F47
:100F2000F90B8C2F932F0A128A115F260A128A114D
:100F30000130FA070318FB0A0030FB077B08803AF0
:100F4000FF0080307F02031DA72F0F307A02031CA1
:100F5000AA2FAB2F862FFA01FB010630F9001330C0
:100F6000F800AD30F700F70BB32FF80BB32FF90BE8
:100F7000B32FBA2F0A128A1166260A128A1101307B
:100F8000FA070318FB0A0030FB077B08803AFF00D2
:100F900080307F02031DCE2F0F307A02031CD12F29
:100FA000D22FAD2F0A128A1158260A128A11F40183
:100FB000F40A02300A128A11A0260A128A11653038
:100FC0000A128A1186260A128A1153300A128A11CD
:100FD00086260A128A110B30F9002630F8005D309F
:100FE000F700F70BF12FF80BF12FF90BF12FF82F7A
:100FF000762F0A128A11002883010A128A116D2F96
:00000001FF
