:020000040000FA
:060000000A128A110C280F
:10000800FE00030EF5000A08F6000A128A11DF281E
:100018000A128A110F28F001F101F201F301F4012B
:1000280083010A128A118C287403031D1C281D28B9
:100038003D287308031D212822283D288312031315
:100048000618272828283D281A30F800F830F70025
:10005800F70B2C28F80B2C2800000130F700770844
:10006800F0077008831203138800F401F301F30A00
:100078008B157303031D412842285228831203134A
:10008800061C4728482852281A30F800F830F7008C
:10009800F70B4C28F80B4C280000F30108007403F8
:1000A800031D5728582876287208031D5C285D28E8
:1000B80076288312031306196228632876281A30D3
:1000C800F800F830F700F70B6728F80B67280000EE
:1000D8000130F0027008831203138800F401F20162
:1000E800F20A8B157203031D7A287B288B2883124A
:1000F8000313061D802881288B281A30F800F83051
:10010800F700F70B8528F80B85280000F201080096
:100118000A128A11B7200A128A110A128A111820A3
:100128000A128A110A128A1153200A128A11831696
:1001380003131418A028A128A528700883120313F4
:10014800930083160313141CAA28AB289128831242
:1001580003131308F9007908F10070089300912837
:100168000A128A110C288316031388011830870095
:100178002030850005308600890183120313890128
:100188008501860187018801831603178801890183
:1001980083120313941283160313940114308312E9
:1001A8000313940094168316031381178B170B17E8
:1001B8008B150B1408000B1CE228E328EF288B1D75
:1001C800E628E728EF287408031DEB28EC28EF2819
:1001D800F401F40A8B1176088A00750E8300FE0E6E
:0401E8007E0E09007E
:04400E00D720FF3F79
:00000001FF
