:020000040000FA
:060000000A128A110C280F
:10000800FE00030EF0000A08F1000A128A11A12866
:100018000A128A110F28F401F501F60183010A1268
:100028008A11B8287603031D1A281B283828750852
:10003800031D1F2820283828831203130618252893
:10004800262838281A30F300F830F200F20B2A2854
:10005800F30B2A280000831203130808013E8800C6
:10006800F601F501F50A8B157503031D3C283D289B
:100078004D2883120313061C422843284D281A30A2
:10008800F300F830F200F20B4728F30B4728000082
:10009800F50108007603031D5228532870287408B8
:1000A800031D5728582870288312031306195D2842
:1000B8005E2870281A30F300F830F200F20B62283C
:1000C800F30B62280000831203130808FF3E880020
:1000D800F601F401F40A8B157403031D74287528BE
:1000E800852883120313061D7A287B2885281A3051
:1000F800F300F830F200F20B7F28F30B7F280000A2
:10010800F40108008316031388018701850105306F
:1001180086008901831203138901850186018701FD
:100128008801831603178801890183160313811731
:100138008B170B178B150B1408000B1CA428A5286C
:10014800B1288B1DA828A928B1287608031DAD2839
:10015800AE28B128F601F60A8B1171088A00700ED4
:100168008300FE0E7E0E09000A128A1186200A12EA
:100178008A110A128A1116200A128A110A128A1181
:0E0188004E200A128A11BD280A128A110C2874
:04400E00D720FF3F79
:00000001FF
