:020000040000FA
:060000000A128A11F32F21
:100F0C000534831203139412803083160313940058
:100F1C00113083120313940094160800F10083120D
:100F2C00031313087108930083160313141C9F2FCB
:100F3C00A02F9A2F83120313130808008312031394
:100F4C0085018601870188018901831603138501B8
:100F5C0088018601103087008901831603178801E8
:100F6C00890108000A128A11A4270A128A110A128E
:100F7C008A1187270A128A111A30F300F830F2000E
:100F8C00F20BC62FF30BC62F00000130F2007208D3
:100F9C00F8077808831203138600091078080A12E0
:100FAC008A1194270A128A11F2007208F50075084A
:100FBC0083120313880009140B30F4002630F3005D
:100FCC005D30F200F20BE82FF30BE82FF40BE82F57
:100FDC00EF2FCB2F0A128A1100280A128A118627AA
:100FEC000A128A11F800F501F601F70183010A12C1
:040FFC008A11B82F6F
:04400E00D720FF3F79
:00000001FF
