:020000040000FA
:060000000A128A11F92F1B
:100F04008312031394124030831603139400223087
:100F140083120313940094160800831203138501AB
:100F240086018701880189018316031385018801DD
:100F3400860110308700890183160317880189010F
:100F440008000C308312031393000230F2000430C3
:100F5400F100BA30F000F00BAD2FF10BAD2FF20B16
:100F6400AD2F000083120313130808000A128A111C
:100F74008F270A128A110A128A1182270A128A11E9
:100F84001A30F400F830F300F30BC62FF40BC62F1D
:100F940000008312031309100A128A11A3270A12EC
:100FA4008A11F3007308F60076088312031388008D
:100FB40009140310861C03140318E12FE52F831270
:100FC40003138614E82F8312031386100230F500EE
:100FD4000430F400BA30F300F30BEE2FF40BEE2FD1
:100FE400F50BEE2F0000CB2F0A128A110028F60110
:0C0FF400F701F80183010A128A11B82FDE
:04400E00D720FF3F79
:00000001FF
