:020000040000FA
:060000000A128A11F12F23
:100F02000534F1008312031313087108930083164A
:100F12000313141C8D2F8E2F882F83120313130893
:100F2200080083120313091105300A128A1182275D
:100F32000A128A11F2007208F7000630F30030300C
:100F4200F200F20BA22FF30BA22F00008312031365
:100F520009157708860008008312031385018601AC
:100F620087018801073089008316031385018801F0
:100F720086011030870089018316031788018901D1
:100F820083120313941283160313940111308312F4
:100F920003139400941608000A128A11AD270A124C
:100FA2008A111A30F500F830F400F40BD62FF50B45
:100FB200D62F00000A128A1192270A128A110B30C8
:100FC200F6002630F5005D30F400F40BE62FF50B49
:100FD200E62FF60BE62FED2FDB2F0A128A110028DF
:100FE2000A128A1181270A128A11FC00F701F801FC
:0E0FF200F901FA01FB0183010A128A11CD2FC9
:04400E00D720FF3F79
:00000001FF
