:020000040000FA
:060000000A128A110C280F
:10000800FE00030EF0000A08F1000A128A15F02D0E
:100018000A128A110F28FA01FB0183120313A001A7
:10002800A101A201A301A401A501A601A701A8019C
:10003800A90183010A128A158B2EAA30F200883092
:10004800F3002D2F1230F2008930F3002D2F763077
:10005800F2008930F3002D2FDA30F2008930F300F6
:100068002D2F4230F2008A30F3002D2FAA30F200F3
:100078008A30F3002D2F0E30F2008B30F3002D2F35
:100088007230F2008B30F3002D2FD630F2008B3017
:10009800F3002D2F4E30F2008830F3002D2FB630AC
:1000A800F2008830F3002D2F1A30F2008930F30067
:1000B8002D2F7E30F2008930F3002D2FE630F2002C
:1000C8008930F3002D2F4E30F2008A30F3002D2FA7
:1000D800B230F2008A30F3002D2F1630F2008B3048
:1000E800F3002D2F7A30F2008B30F3002D2FDE3005
:1000F800F2008B30F3002D2F5630F2008830F300D9
:100108002D2FBE30F2008830F3002D2F2230F20060
:100118008930F3002D2F8630F2008930F3002D2F1F
:10012800EE30F2008930F3002D2F5630F2008A307D
:10013800F3002D2FBA30F2008A30F3002D2F1E3035
:10014800F2008B30F3002D2F8230F2008B30F30059
:100158002D2FE630F2008B30F3002D2F5E30F200A9
:100168008830F3002D2FC630F2008830F3002D2F91
:100178002A30F2008930F3002D2F8E30F2008930BA
:10018800F3002D2FF630F2008930F3002D2F5E306A
:10019800F2008A30F3002D2FC230F2008A30F300CB
:1001A8002D2F2630F2008B30F3002D2F8A30F200ED
:1001B8008B30F3002D2FEE30F2008B30F3002D2F13
:1001C8006630F2008830F3002D2FCE30F2008830F0
:1001D800F3002D2F3230F2008930F3002D2F9630A6
:1001E800F2008930F3002D2FFE30F2008930F30041
:1001F8002D2F6630F2008A30F3002D2FCA30F2001E
:100208008A30F3002D2F2E30F2008B30F3002D2F83
:100218009230F2008B30F3002D2FF630F2008B3045
:10022800F3002D2F0E30F2008830F3002D2F72309E
:10023800F2008830F3002D2FDA30F2008830F30016
:100248002D2F3E30F2008930F3002D2FA230F2001E
:100258008930F3002D2F0A30F2008A30F3002D2F59
:100268007230F2008A30F3002D2FD630F2008A3037
:10027800F3002D2F3A30F2008B30F3002D2F9E30F3
:10028800F2008B30F3002D2F1630F2008830F30087
:100298002D2F7E30F2008830F3002D2FE630F2004B
:1002A8008830F3002D2F4A30F2008930F3002D2FCB
:1002B800AE30F2008930F3002D2F1630F2008A306C
:1002C800F3002D2F7E30F2008A30F3002D2FE2301C
:1002D800F2008A30F3002D2F4630F2008B30F30005
:1002E8002D2FAA30F2008B30F3002D2F2230F20090
:1002F8008830F3002D2F8A30F2008830F3002D2F3C
:10030800F230F2008830F3002D2F5630F200893099
:10031800F3002D2FBA30F2008930F3002D2F223050
:10032800F2008A30F3002D2F8A30F2008A30F30071
:100338002D2FEE30F2008A30F3002D2F5230F200CC
:100348008B30F3002D2FB630F2008B30F3002D2FB9
:100358002E30F2008830F3002D2F9630F2008830CE
:10036800F3002D2FFE30F2008830F3002D2F62307D
:10037800F2008930F3002D2FC630F2008930F300E7
:100388002D2F2E30F2008A30F3002D2F9630F200F8
:100398008A30F3002D2FFA30F2008A30F3002D2F27
:1003A8005E30F2008B30F3002D2FC230F2008B301C
:1003B800F3002D2F3A30F2008830F3002D2FA230B1
:1003C800F2008830F3002D2F0A30F2008930F30054
:1003D8002D2F6E30F2008930F3002D2FD230F2002D
:1003E8008930F3002D2F3A30F2008A30F3002D2F98
:1003F800A230F2008A30F3002D2F0630F2008B3045
:10040800F3002D2F6A30F2008B30F3002D2FCE3001
:10041800F2008B30F3002D2F4630F2008830F300C5
:100428002D2FAE30F2008830F3002D2FD830F20097
:100438008830F3002D2F3C30F2008930F3002D2F47
:10044800DE30F2008930F3002D2F4630F2008A307A
:10045800F3002D2FAE30F2008A30F3002D2F12302A
:10046800F2008B30F3002D2F7630F2008B30F30042
:100478002D2FDA30F2008B30F3002D2F5230F2009E
:100488008830F3002D2FBA30F2008830F3002D2F7A
:100498001E30F2008930F3002D2F8230F2008930AF
:1004A800F3002D2FEA30F2008930F3002D2F52305F
:1004B800F2008A30F3002D2FB630F2008A30F300B4
:1004C8002D2F1A30F2008B30F3002D2F7E30F200E2
:1004D8008B30F3002D2FE230F2008B30F3002D2FFC
:1004E8005A30F2008830F3002D2FC230F2008830E5
:1004F800F3002D2F2630F2008930F3002D2F8A309B
:10050800F2008930F3002D2FF230F2008930F30029
:100518002D2F5A30F2008A30F3002D2FBE30F20012
:100528008A30F3002D2F2230F2008B30F3002D2F6C
:100538008630F2008B30F3002D2FEA30F2008B303A
:10054800F3002D2F6230F2008830F3002D2FCA30CF
:10055800F2008830F3002D2F2E30F2008930F3009E
:100568002D2F9230F2008930F3002D2FFA30F2004F
:100578008930F3002D2F6230F2008A30F3002D2FDE
:10058800C630F2008A30F3002D2F2A30F2008B306B
:10059800F3002D2F8E30F2008B30F3002D2FF23028
:1005A800F2008B30F3002D2F6A30F2008830F30010
:1005B8002D2FD230F2008830F3002D2F3630F20084
:1005C8008930F3002D2F9A30F2008930F3002D2F57
:1005D8000230F2008A30F3002D2F6A30F2008A30A0
:1005E800F3002D2FCE30F2008A30F3002D2F323059
:1005F800F2008B30F3002D2F9630F2008B30F30091
:100608002D2FFA30F2008B30F3002D2F1F30F2001F
:100618008830F3002D2F7630F2008830F3002D2F2C
:10062800DE30F2008830F3002D2F4230F20089309E
:10063800F3002D2FA630F2008930F3002D2F0E3055
:10064800F2008A30F3002D2F7630F2008A30F30062
:100658002D2FDA30F2008A30F3002D2F3E30F200D1
:100668008B30F3002D2FA230F2008B30F3002D2FAA
:100678001A30F2008830F3002D2F8230F2008830D3
:10068800F3002D2FEA30F2008830F3002D2F4E3082
:10069800F2008930F3002D2FB230F2008930F300D8
:1006A8002D2F1A30F2008A30F3002D2F8230F200FD
:1006B8008A30F3002D2FE630F2008A30F3002D2F18
:1006C8004A30F2008B30F3002D2FAE30F2008B3021
:1006D800F3002D2F2630F2008830F3002D2F8E30B6
:1006E800F2008830F3002D2FF630F2008830F30046
:1006F8002D2F5A30F2008930F3002D2FBE30F20032
:100708008930F3002D2F2630F2008A30F3002D2F88
:100718008E30F2008A30F3002D2FF230F2008A304A
:10072800F3002D2F5630F2008B30F3002D2FBA3006
:10073800F2008B30F3002D2F3230F2008830F300B6
:100748002D2F9A30F2008830F3002D2F0230F2005E
:100758008930F3002D2F6630F2008930F3002D2FF9
:10076800CA30F2008930F3002D2F3230F2008A307F
:10077800F3002D2F9A30F2008A30F3002D2FFE302F
:10078800F2008A30F3002D2F6230F2008B30F30034
:100798002D2FC630F2008B30F3002D2F3E30F200A3
:1007A8008830F3002D2FA630F2008830F3002D2F6B
:1007B8000E30F2008930F3002D2F7230F2008930AC
:1007C800F3002D2FD630F2008930F3002D2F3E3064
:1007D800F2008A30F3002D2FA630F2008A30F300A1
:1007E8002D2F0A30F2008B30F3002D2F6E30F200DF
:1007F8008B30F3002D2FD230F2008B30F3002D2FE9
:100808004A30F2008830F3002D2FB230F2008830E1
:10081800F3002D2F1630F2008930F3002D2F7A3097
:10082800F2008930F3002D2FE230F2008930F30016
:100838002D2F4A30F2008A30F3002D2F7508F3006F
:10084800F4017408003A03192A2C2D2F7308003A72
:100858000A128A150319FF2E013A0319062F033AC3
:1008680003190B2F013A0319102F073A0319152FF3
:10087800013A03191A2F033A03191F2F013A0319D2
:10088800242F0F3A0319292F013A03192E2F033A5F
:100898000319332F013A0319382F073A03193D2F4B
:1008A800013A0319422F033A0319472F013A031952
:1008B8004C2F1F3A0319512F013A0319562F033AA7
:1008C80003195B2F013A0319602F073A0319652FA3
:1008D800013A03196A2F033A03196F2F013A0319D2
:1008E800742F0F3A0319792F013A03197E2F033A0F
:1008F8000319832F013A0319882F073A03198D2FFB
:10090800013A0319922F033A0319972F013A031951
:100918009C2F3F3A0319A12F013A0319A62F033A36
:100928000319AB2F013A0319B02F073A0319B52F52
:10093800013A0319BA2F033A0319BF2F013A0319D1
:10094800C42F0F3A0319C92F013A0319CE2F033ABE
:100958000319D32F013A0319D82F073A0319DD2FAA
:10096800013A0319E22F033A0319E72F013A031951
:10097800EC2F1F3A0319F12F013A0319F62F0A1227
:100988008A11033A03192E2F013A03192128073A2D
:1009980003192628013A03192B28033A031930288A
:1009A800013A031935280F3A03193A28013A03196D
:1009B8003F28033A03194428013A03194928073AFA
:1009C80003194E28013A03195328033A03195828E2
:1009D800013A03195D287F3A03196228013A03197D
:1009E8006728033A03196C28013A03197128073A52
:1009F80003197628013A03197B28033A031980283A
:100A0800013A031985280F3A03198A28013A03196C
:100A18008F28033A03199428013A03199928073AA9
:100A280003199E28013A0319A328033A0319A82891
:100A3800013A0319AD281F3A0319B228013A0319DC
:100A4800B728033A0319BC28013A0319C128073A01
:100A58000319C628013A0319CB28033A0319D028E9
:100A6800013A0319D5280F3A0319DA28013A03196C
:100A7800DF28033A0319E428013A0319E928073A59
:100A88000319EE28013A0319F328033A0319F82841
:100A9800013A0319FD283F3A03190229013A0319BB
:100AA8000729033A03190C29013A03191129073AAE
:100AB80003191629013A03191B29033A0319202996
:100AC800013A031925290F3A03192A29013A03196A
:100AD8002F29033A03193429013A03193929073A06
:100AE80003193E29013A03194329033A03194829EE
:100AF800013A03194D291F3A03195229013A0319DA
:100B08005729033A03195C29013A03196129073A5D
:100B180003196629013A03196B29033A0319702945
:100B2800013A031975290F3A03197A29013A031969
:100B38007F29033A03198429013A03198929073AB5
:100B480003198E29013A03199329033A031998299D
:100B5800013A03199D29FF3A0319A229013A0319F9
:100B6800A729033A0319AC29013A0319B129073A0D
:100B78000319B629013A0319BB29033A0319C029F5
:100B8800013A0319C5290F3A0319CA29013A031969
:100B9800CF29033A0319D429013A0319D929073A65
:100BA8000319DE29013A0319E329033A0319E8294D
:100BB800013A0319ED291F3A0319F229013A0319D9
:100BC800F729033A0319FC29013A0319012A073ABC
:100BD8000319062A013A03190B2A033A0319102AA2
:100BE800013A0319152A0F3A03191A2A013A031967
:100BF8001F2A033A0319242A013A0319292A073A12
:100C080003192E2A013A0319332A033A0319382AF9
:100C1800013A03193D2A3F3A0319422A013A0319B6
:100C2800472A033A03194C2A013A0319512A073A69
:100C38000319562A013A03195B2A033A0319602A51
:100C4800013A0319652A0F3A03196A2A013A031966
:100C58006F2A033A0319742A013A0319792A073AC1
:100C680003197E2A013A0319832A033A0319882AA9
:100C7800013A03198D2A1F3A0319922A013A0319D6
:100C8800972A033A03199C2A013A0319A12A073A19
:100C98000319A62A013A0319AB2A033A0319B02A01
:100CA800013A0319B52A0F3A0319BA2A013A031966
:100CB800BF2A033A0319C42A013A0319C92A073A71
:100CC8000319CE2A013A0319D32A033A0319D82A59
:100CD800013A0319DD2A7F3A0319E22A013A031976
:100CE800E72A033A0319EC2A013A0319F12A073AC9
:100CF8000319F62A013A0319FB2A033A0319002BB0
:100D0800013A0319052B0F3A03190A2B013A031963
:100D18000F2B033A0319142B013A0319192B073A1D
:100D280003191E2B013A0319232B033A0319282B05
:100D3800013A03192D2B1F3A0319322B013A0319D3
:100D4800372B033A03193C2B013A0319412B073A75
:100D58000319462B013A03194B2B033A0319502B5D
:100D6800013A0319552B0F3A03195A2B013A031963
:100D78005F2B033A0319642B013A0319692B073ACD
:100D880003196E2B013A0319732B033A0319782BB5
:100D9800013A03197D2B3F3A0319822B013A0319B3
:100DA800872B033A03198C2B013A0319912B073A25
:100DB8000319962B013A03199B2B033A0319A02B0D
:100DC800013A0319A52B0F3A0319AA2B013A031963
:100DD800AF2B033A0319B42B013A0319B92B073A7D
:100DE8000319BE2B013A0319C32B033A0319C82B65
:100DF800013A0319CD2B1F3A0319D22B013A0319D3
:100E0800D72B033A0319DC2B013A0319E12B073AD4
:100E18000319E62B013A0319EB2B033A0319F02BBC
:100E2800013A0319F52B0F3A0319FA2B013A031962
:100E3800FF2B033A0319042C013A0319092C073A2A
:100E480003190E2C013A0319132C033A0319182C11
:100E58001D2C08000A128A15FB2F83120313850123
:100E680086018701880107308900831603138501ED
:100E780088018601103087000713871789018316B8
:100E8800031788018901193083160313990018156F
:100E9800831603178711831603139A0118128312F6
:100EA8000313981783160313181398168C168312B6
:100EB8000313181318169412831603139401113090
:100EC80083120313940094160A128A15D7250A125E
:100ED8008A11F601F60A01300A128A1525260A1225
:100EE8008A11FE30F5008B30F6000A128A11A92704
:100EF8000A128A11073083120313AC002C08F6007B
:100F080001300A128A1525260A128A110530F500C1
:100F18008830F6000A128A11A9270A128A110D30A0
:100F280083120313AC002C08F60001300A128A154C
:100F380025260A128A110030F5008830F6000A12B8
:100F48008A11A9270A128A11080083120313AA0119
:100F5800AB01D22F2A087507F8007608F7000318A6
:100F6800F70AAA1FB82FF7037708F9007908831240
:100F78000313FF00780884000A128A1502240A1253
:100F88008A110A128A1576250A128A1101308312EB
:100F98000313AA070318AB0A0030AB072A08750722
:100FA800F8007608F7000318F70AAA1FDC2FF703E2
:100FB8007708F900790883120313FF007808840082
:100FC8000A128A1502240A128A11003A031DED2F0B
:100FD800EE2FAE2F0800F3008312031313087308D3
:100FE800930083160313141CFA2FFB2FF52F83127B
:100FF8000313130808000800543445344D345034A2
:10100800003443344F344E345434003430343034A4
:101018003034003431343034303400343034313406
:1010280030340034313431343034003432343134F3
:1010380030340034303432343034003431343234E3
:1010480030340034323432343034003430343334D1
:1010580030340034313433343034003432343334BF
:1010680030340034303434343034003431343434AF
:10107800303400343234343430340034303435349D
:10108800303400343134353430340034323435348B
:10109800303400343034363430340034313436347B
:1010A8003034003430343734303400343134373469
:1010B8003034003430343834303400343134383457
:1010C8003034003430343934303400343134393445
:1010D8003034003430343034313400343134303446
:1010E8003134003432343034313400343034313433
:1010F8003134003431343134313400343234313421
:101108003134003430343234313400343134323410
:1011180031340034323432343134003430343334FE
:1011280031340034313433343134003432343334EC
:1011380031340034303434343134003431343434DC
:1011480031340034323434343134003430343534CA
:1011580031340034313435343134003432343534B8
:1011680031340034303436343134003431343634A8
:101178003134003430343734313400343134373496
:101188003134003430343834313400343134383484
:101198003134003430343934313400343134393472
:1011A8003134003430343034323400343134303473
:1011B8003234003432343034323400343034313460
:1011C800323400343134313432340034323431344E
:1011D800323400343034323432340034313432343E
:1011E800323400343234323432340034303433342C
:1011F800323400343134333432340034323433341A
:101208003234003430343434323400343134343409
:1012180032340034323434343234003430343534F7
:1012280032340034323435343234003430343634E5
:1012380032340034313436343234003430343734D4
:1012480032340034313437343234003430343834C2
:1012580032340034313438343234003430343934B0
:1012680032340034313439343234003430343034A8
:10127800333400343134303433340034323430349D
:10128800333400343034313433340034313431348D
:10129800333400343234313433340034303432347B
:1012A8003334003431343234333400343234323469
:1012B8003334003430343334333400343134333459
:1012C8003334003432343334333400343034343447
:1012D8003334003431343434333400343234343435
:1012E8003334003430343534333400343234353424
:1012F8003334003430343634333400343134363413
:101308003334003430343734333400343134373400
:1013180033340034303438343334003431343834EE
:1013280033340034303439343334003431343934DC
:1013380033340034303430343434003431343034DD
:1013480034340034323430343434003430343134CA
:1013580034340034313431343434003432343134B8
:1013680034340034303432343434003431343234A8
:101378003434003432343234343400343034333496
:101388003434003431343334343400343234333484
:101398003434003430343434343400343134343474
:1013A8003434003432343434343400343034353462
:1013B8003434003431343534343400343234353450
:1013C8003434003430343634343400343134363440
:1013D800343400343034373434340034313437342E
:1013E800343400343034383434340034313438341C
:1013F800343400343034393434340034313439340A
:10140800343400343034303435340034313430340A
:1014180035340034323430343534003430343134F7
:1014280035340034313431343534003432343134E5
:1014380035340034303432343534003431343234D5
:1014480035340034323432343534003430343334C3
:1014580035340034313433343534003432343334B1
:1014680035340034303434343534003431343434A1
:10147800353400343234343435340034303435348F
:10148800353400343134353435340034323435347D
:10149800353400343034363435340034313436346D
:1014A800353400343034373435340034313437345B
:1014B8003534003430343834353400343134383449
:1014C8003534003430343934353400343134393437
:1014D8003534003430343034363400343134303438
:1014E8003634003432343034363400343034313425
:1014F8003634003431343134363400343234313413
:101508003634003430343234363400343134323402
:1015180036340034323432343634003430343334F0
:1015280036340034313433343634003432343334DE
:1015380036340034303434343634003431343434CE
:1015480036340034323434343634003430343534BC
:1015580036340034313435343634003430343634AB
:101568003634003431343634363400343034373499
:101578003634003431343734363400343034383487
:101588003634003431343834363400343034393475
:10159800363400343134393436340034303430346D
:1015A8003734003431343034373400343234303462
:1015B8003734003430343134373400343134313452
:1015C8003734003432343134373400343034323440
:1015D800373400343134323437340034323432342E
:1015E800373400343034333437340034313433341E
:1015F800373400343234333437340034303434340C
:1016080037340034313434343734003432343434F9
:1016180037340034303435343734003431343534E9
:1016280037340034303436343734003431343634D7
:1016380037340034303437343734003431343734C5
:1016480037340034303438343734003431343834B3
:1016580037340034303439343734003431343934A1
:1016680037340034303430343834003431343034A2
:10167800383400343234303438340034303431348F
:10168800383400343134313438340034323431347D
:10169800383400343034323438340034313432346D
:1016A800383400343234323438340034303433345B
:1016B8003834003431343334383400343234333449
:1016C8003834003430343434383400343134343439
:1016D8003834003432343434383400343034353427
:1016E8003834003431343534383400343034363416
:1016F8003834003431343634383400343034373404
:1017080038340034313437343834003430343834F1
:1017180038340034313438343834003430343934DF
:1017280038340034313439343834003430343034D7
:1017380039340034313430343934003432343034CC
:1017480039340034303431343934003431343134BC
:1017580039340034323431343934003430343234AA
:101768003934003431343234393400343234323498
:101778003934003430343334393400343134333488
:101788003934003432343334393400343034343476
:101798003934003431343434393400343234343464
:1017A8003934003430343534393400343134353454
:1017B8003934003430343634393400343134363442
:1017C8003934003430343734393400343134373430
:1017D800393400343034383439340034313438341E
:1017E800393400343034393439340034313439340C
:1017F8003934003450344F3454340034FF1B0C2C2B
:1018080083137F1883170008840A0319FF0A080046
:101818007F087F398A000408840A0319FF0A8200B6
:101AE000F20072088312031388000800F4008312C6
:101AF0000313871474080A128A1570250A128A15AE
:101B00008312031307141A30F300F30B852D000022
:101B100083120313071087100800F50075080A12D6
:101B20008A1570250A128A15831203138710071469
:101B30000D30F400FB30F300F30B9C2DF40B9C2DC7
:101B4000A12D831203130710080083120313091039
:101B500000300A128A11EF270A128A15F40074085D
:101B6000FB000630F5003030F400F40BB52DF50B1A
:101B7000B52D000083120313091408008312031308
:101B8000891000300A128A11EF270A128A15F40010
:101B90007408FA000630F5003030F400F40BCE2D56
:101BA000F50BCE2D00008312031389140800383082
:101BB0000A128A158D250A128A150C300A128A1506
:101BC0008D250A128A1506300A128A158D250A12E9
:101BD0008A1580300A128A158D250A128A15080086
:101BE0008B13831203130C1EF62DF72D022E0A12EF
:101BF0008A11FF270A128A1583120313990083168C
:101C000003130C128B1771088A00700E8300FE0EEE
:101C10007E0E090083120313091100300A128A1183
:101C2000EF270A128A15F400740883120313A60022
:101C30000630F5003030F400F40B1C2EF50B1C2E92
:101C400000008312031309150800F8007803031D30
:101C50002A2E2B2E372E76087F3EF7007708F900C4
:101C600079080A128A158D250A128A15482E023023
:101C70007806031D3C2E3D2E482E7608BF3EF70009
:101C80007708F90079080A128A158D250A128A1533
:101C900008000D3083120313AC002C08F60002304C
:101CA0000A128A1525260A128A15831203132008A0
:101CB000F5002108F6000A128A11A9270A128A15CE
:101CC000073083120313AC002C08F60002300A120E
:101CD0008A1525260A128A15831203132208F50095
:101CE0002308F6000A128A11A9270A128A15F6019A
:101CF000F60A02300A128A1525260A128A1583125C
:101D000003132408F5002508F6000A128A11A927F2
:101D10000A128A1508000A128A1131270A128A1536
:101D20000A128A15A5250A128A1502308312031396
:101D3000AF000430AE00B930AD00AD0B9D2EAE0B40
:101D40009D2EAF0B9D2EA42E7B080A128A15FB2612
:101D50000A128A15720883120313A4007308A500DF
:101D60000A128A15BE250A128A150230831203133D
:101D7000AF000430AE00B930AD00AD0BBD2EAE0BE0
:101D8000BD2EAF0BBD2EC42E7A080A128A15FB2673
:101D90000A128A15720883120313A2007308A300A3
:101DA0000A128A150A260A128A15023083120313B0
:101DB000AF000430AE00B930AD00AD0BDD2EAE0B80
:101DC000DD2EAF0BDD2EE42E8312031326080A123C
:101DD0008A15FB260A128A15720883120313A000C3
:101DE0007308A1000A128A1549260A128A15902E34
:101DF0000A128A110C28F5000A128A11222C0A30C4
:101E0000F2008830F3000A128A112D2F6E30F20092
:101E10008830F300032FD630F2008830F300032F10
:101E20003A30F2008930F300032F9E30F2008930FF
:101E3000F300032F0630F2008A30F300032F6E30D8
:101E4000F2008A30F300032FD230F2008A30F30020
:101E5000032F3630F2008B30F300032F9A30F2005C
:101E60008B30F300032F1230F2008830F300032F81
:101E70007A30F2008830F300032FE230F20088302D
:101E8000F300032F4630F2008930F300032FAA300D
:101E9000F2008930F300032F1230F2008A30F30091
:101EA000032F7A30F2008A30F300032FDE30F20085
:101EB0008A30F300032F4230F2008B30F300032FFF
:101EC000A630F2008B30F300032F1E30F200883072
:101ED000F300032F8630F2008830F300032FEE303A
:101EE000F2008830F300032F5230F2008930F30003
:101EF000032FB630F2008930F300032F1E30F200BA
:101F00008A30F300032F8630F2008A30F300032F6B
:101F1000EA30F2008A30F300032F4E30F2008B30AB
:101F2000F300032FB230F2008B30F300032F2A307E
:101F3000F2008830F300032F9230F2008830F30073
:101F4000032FFA30F2008830F300032F5E30F200E6
:101F50008930F300032FC230F2008930F300032FE1
:101F60002A30F2008A30F300032F9230F2008A30D8
:101F7000F300032FF630F2008A30F300032F5A30BB
:101F8000F2008B30F300032FBE30F2008B30F300F1
:101F9000032F3630F2008830F300032F9E30F2001A
:101FA0008830F300032F0630F2008930F300032F4E
:101FB0006A30F2008930F300032FCE30F20089300E
:101FC000F300032F3630F2008A30F300032F9E30E7
:101FD000F2008A30F300032F0230F2008B30F3005E
:101FE000032F6630F2008B30F300032FCA30F2006B
:101FF0008B30F300032F4230F2008830F300032FC0
:04400E00D720FF3F79
:00000001FF
