:020000040000FA
:060000000A128A110E280D
:10000800FE00030EF7000408F8000A08F9000A12B7
:100018008A112C2A0A128A11112883134130FD00F3
:100028000330FE003C30FF00203084000A128A11A1
:1000380094230A128A11CB01CC01CD01FA01FB01EC
:10004800FC01FD0183010A128A11B62983120313E8
:10005800C50043283F309F0565281F083F394038B1
:100068009F0065281F083F3980389F006528C030E9
:100078009F0465281F083F3940389F0065284508B8
:10008800C300C4014408003A03194B283E2843081A
:10009800013A03192E28053A031931280C3A031995
:1000A80036281C3A03193B283E28831603139F134E
:1000B800DB28831603139F17DB28831603139F136C
:1000C800DB284208C300C4014408003A03196D281C
:1000D80061284308483A03195928043A03195D2846
:1000E8006128831603130514831603170814C330F5
:1000F800831203139F05FF288316031385148316A1
:1001080003178814831203131F08C33904389F0088
:10011800FF28831603130515831603170815831282
:1001280003131F08C33908389F00FF2883160313D9
:100138008515831603178815831203131F08C339FF
:100148000C389F00FF2883160313851683160317A0
:100158000816831203131F08C3390C389F00FF28A1
:1001680083160313091483160317881683120313BF
:100178001F08C33914389F00FF28831603138914F6
:10018800831603170817831203131F08C339183877
:100198009F00FF2883160313091583160317881772
:1001A800831203131F08C3391C389F00FF288312CA
:1001B80003134108C300C4014408003A0319E528A1
:1001C800FF284308003A03197528013A03198028C3
:1001D800033A03198D28013A03199A28073A031993
:1001E800A728013A0319B428033A0319C128013A88
:1001F8000319CE28FF281F140C13831603130C179A
:100208000B17273083120313C400F430C300C30B49
:100218000B29C40B0B290000831203139F14080039
:1002280083160313880183120313880183160313AB
:1002380007110710831203130711071072298F3053
:10024800831603138F05AA29831603130F088F3902
:1002580010388F00AA29831603130F088F39203806
:100268008F00AA29831603130F088F3930388F009F
:10027800AA29831603130F088F3940388F00AA293B
:10028800831603130F088F3950388F00AA29831655
:1002980003130F088F3960388F000108F8390638C2
:1002A8008100B13083120313C3004308C000AA2998
:1002B8007030831603138F040108F839063881005B
:1002C800623083120313C3004308C000AA298316AF
:1002D80003130F088F3960388F00AA294208003AA3
:1002E80003198629013A03199129023A0319962913
:1002F800043A03199B29083A0319A029103A03194B
:10030800A5296B2941081F3A03192329623A0319C1
:100318002829873A03192F296B294108F43A031928
:1003280036296B294108E83A03193D296B29410808
:10033800D03A031944296B294108A03A03194B29DB
:100348006B294108403A03195C296B29831603136A
:1003580081120112811183120313400881000B11CD
:100368008B1608000A128A115D230A128A11A0301E
:1003780083120313C1000F30C2000A128A1114211C
:100388000A128A11053083120313C6004608C100F9
:100398004830C7004708C20008300A128A112A20CC
:1003A8000A128A118B17831203134D03031DDD29CB
:1003B800DE291E2A48300A128A1118230A128A11C5
:1003C80083120313C6004608CA00C8014A08031965
:1003D800EE29EF29F129C801C80A4808C6004608CD
:1003E800CB00C9014A080319FA29FB29FD29C901CB
:1003F800C90A4908C60004300310C60CFF3E031D95
:10040800002A4608C7004708CC00CD014A0805065F
:10041800031D0F2A102A122A8914192A4A080506C8
:100428000319172A182A192A89100A128A117B23F4
:100438000A128A110A128A1170220A128A110A12E1
:100448008A11AC220A128A11D7290A128A110E2897
:10045800831203130C1F312A322A3D2A83160313F1
:100468000C1F372A382A3D2A0C1383120313CD0197
:10047800CD0A0B1C402A412A4E2A8B1D442A452AA4
:100488004E2A0B107D08031D4A2A4B2A4E2AFD01CD
:10049800FD0A8B110B1D512A522A672A8B1E552AD9
:1004A800562A672AFA0983124C08F5007508F000E5
:1004B8007A08F6007608F1004B080A128A11E82239
:1004C8000A128A110B1179088A0078088400770EBD
:1004D8008300FE0E7E0E09007D03031D742A752A13
:1004E800942A7C08031D792A7A2A942A83120313F2
:1004F80006187F2A802A942A5A3083120313C200CE
:100508009A30C100C10B862AC20B862A00008312CA
:1005180003130508013E8500FD01FC01FC0A8B154B
:100528007C03031D982A992AAB2A83120313061CFD
:100538009E2A9F2AAB2A5A3083120313C2009A308C
:10054800C100C10BA52AC20BA52A0000FC010800A6
:100558007D03031DB02AB12AD02A7B08031DB52AC2
:10056800B62AD02A831203130619BB2ABC2AD02A1A
:100578005A3083120313C2009A30C100C10BC22A39
:10058800C20BC22A0000831203130508FF3E850030
:10059800FD01FB01FB0A8B157B03031DD42AD52A19
:1005A800E72A83120313061DDA2ADB2AE72A5A30C0
:1005B80083120313C2009A30C100C10BE12AC20B97
:1005C800E12A0000FB010800F4008312031340082D
:1005D8008100072B07107408F2007207203E840080
:1005E8008313000888000715172B07117008F200FD
:1005F8007207203E84008313000888000714172B15
:1006080008088800172B7108F200F3017308003AF4
:1006180003190F2B042B7208003A0319EE2AFF3A2C
:100628000319F92A042B080083120313C3002A2B89
:100638001E08C1004108C4003A2B831603131E0884
:1006480083120313C1004108C4003A2B4308C100B8
:10065800C2014208003A0319322B1C2B4108483AC0
:1006680003191C2B043A0319212B1C2B44080800DE
:1006780088340034EB3400344C34003449340034CA
:100688002B3400341934003418340034CB3400349B
:10069800083400340B34003402340034303400346D
:1006A8009434003460340034143400341634003484
:1006B8008334FF30831603138800FF3087008501D9
:1006C800053086008901831203138901850186019B
:1006D800870188018316031788018901053083166D
:1006E800031395008113053096008B1508008312BB
:1006F80003130C13831603130C171A3083120313F6
:10070800C200F730C100C10B872BC20B872B8C2B83
:10071800831203139F1408007E088A007F08820052
:100728000A128A1190230A128A118000840A040886
:0E0738007D0603190034FF0A0319FE0A942BF4
:04400E00D420FF3F7C
:00000001FF
