:020000040000FA
:060000000A128A110E280D
:10000800FE00030EF7000408F8000A08F9000A12B7
:100018008A11222A0A128A11112883134130FD00FD
:100028000330FE003230FF00203084000A128A11AB
:100038008A230A128A11C901CA01CB01FA01FB01FC
:10004800FC01FD0183010A128A11B62983120313E8
:10005800C50043283F309F0565281F083F394038B1
:100068009F0065281F083F3980389F006528C030E9
:100078009F0465281F083F3940389F0065284508B8
:10008800C300C4014408003A03194B283E2843081A
:10009800013A03192E28053A031931280C3A031995
:1000A80036281C3A03193B283E28831603139F134E
:1000B800DB28831603139F17DB28831603139F136C
:1000C800DB284208C300C4014408003A03196D281C
:1000D80061284308483A03195928043A03195D2846
:1000E8006128831603130514831603170814C330F5
:1000F800831203139F05FF288316031385148316A1
:1001080003178814831203131F08C33904389F0088
:10011800FF28831603130515831603170815831282
:1001280003131F08C33908389F00FF2883160313D9
:100138008515831603178815831203131F08C339FF
:100148000C389F00FF2883160313851683160317A0
:100158000816831203131F08C3390C389F00FF28A1
:1001680083160313091483160317881683120313BF
:100178001F08C33914389F00FF28831603138914F6
:10018800831603170817831203131F08C339183877
:100198009F00FF2883160313091583160317881772
:1001A800831203131F08C3391C389F00FF288312CA
:1001B80003134108C300C4014408003A0319E528A1
:1001C800FF284308003A03197528013A03198028C3
:1001D800033A03198D28013A03199A28073A031993
:1001E800A728013A0319B428033A0319C128013A88
:1001F8000319CE28FF281F140C13831603130C179A
:100208000B17273083120313C400F430C300C30B49
:100218000B29C40B0B290000831203139F14080039
:1002280083160313880183120313880183160313AB
:1002380007110710831203130711071072298F3053
:10024800831603138F05AA29831603130F088F3902
:1002580010388F00AA29831603130F088F39203806
:100268008F00AA29831603130F088F3930388F009F
:10027800AA29831603130F088F3940388F00AA293B
:10028800831603130F088F3950388F00AA29831655
:1002980003130F088F3960388F000108F8390638C2
:1002A8008100B13083120313C3004308C000AA2998
:1002B8007030831603138F040108F839063881005B
:1002C800623083120313C3004308C000AA298316AF
:1002D80003130F088F3960388F00AA294208003AA3
:1002E80003198629013A03199129023A0319962913
:1002F800043A03199B29083A0319A029103A03194B
:10030800A5296B2941081F3A03192329623A0319C1
:100318002829873A03192F296B294108F43A031928
:1003280036296B294108E83A03193D296B29410808
:10033800D03A031944296B294108A03A03194B29DB
:100348006B294108403A03195C296B29831603136A
:1003580081120112811183120313400881000B11CD
:100368008B1608000A128A1153230A128A11A03028
:1003780083120313C1000F30C2000A128A1114211C
:100388000A128A11053083120313C6004608C100F9
:100398004830C7004708C20008300A128A112A20CC
:1003A8000A128A118B17831203134B03031DDD29CD
:1003B800DE29142A0930C6004608C90048300A1246
:1003C8008A110E230A128A1183120313C6004608E3
:1003D800C80048080506031DF229F329F5298914E0
:1003E800FC29480805060319FA29FB29FC29891064
:1003F80048080F39C6004608C9004808C600043036
:100408000310C60CFF3E031D042A46080F39C70017
:100418004708CA00CB010A128A1171230A128A11ED
:100428000A128A1166220A128A110A128A11A22253
:100438000A128A11D7290A128A110E288312031365
:100448000C1F272A282A332A831603130C1F2D2A48
:100458002E2A332A0C1383120313CB01CB0A0B1C4D
:10046800362A372A442A8B1D3A2A3B2A442A0B105B
:100478007D08031D402A412A442AFD01FD0A8B11EB
:100488000B1D472A482A5D2A8B1E4B2A4C2A5D2AB7
:10049800FA0983124A08F5007508F0007A08F60090
:1004A8007608F10049080A128A11DE220A128A1116
:1004B8000B1179088A0078088400770E8300FE0EF5
:1004C8007E0E09007D03031D6A2A6B2A8A2A7C088E
:1004D800031D6F2A702A8A2A831203130618752AA5
:1004E800762A8A2A5A3083120313C2009A30C1002E
:1004F800C10B7C2AC20B7C2A000083120313050857
:10050800013E8500FD01FC01FC0A8B157C03031DDF
:100518008E2A8F2AA12A83120313061C942A952A4D
:10052800A12A5A3083120313C2009A30C100C10BAA
:100538009B2AC20B9B2A0000FC0108007D03031DB7
:10054800A62AA72AC62A7B08031DAB2AAC2AC62AD4
:10055800831203130619B12AB22AC62A5A30831203
:100568000313C2009A30C100C10BB82AC20BB82AC3
:100578000000831203130508FF3E8500FD01FB01FF
:10058800FB0A8B157B03031DCA2ACB2ADD2A83129B
:100598000313061DD02AD12ADD2A5A3083120313E9
:1005A800C2009A30C100C10BD72AC20BD72A00005B
:1005B800FB010800F4008312031340088100FD2AA0
:1005C80007107408F2007207203E840083130008A5
:1005D800880007150D2B07117008F2007207203EDE
:1005E800840083130008880007140D2B080888006E
:1005F8000D2B7108F200F3017308003A0319052B5B
:10060800FA2A7208003A0319E42AFF3A0319EF2A72
:10061800FA2A080083120313C300202B1E08C10006
:100628004108C400302B831603131E0883120313DA
:10063800C1004108C400302B4308C100C201420870
:10064800003A0319282B122B4108483A0319122B98
:10065800043A0319172B122B440808008834003475
:10066800EB3400344C340034493400342B34003437
:100678001934003418340034CB34003408340034CE
:100688000B340034023400343034003494340034F1
:100698006034003414340034163400348334FF30AA
:1006A800831603138800FF30870085010530860014
:1006B8008901831203138901850186018701880155
:1006C80083160317880189010530831603139500E3
:1006D8008113053096008B150800831203130C1341
:1006E800831603130C171A3083120313C200F73052
:1006F800C100C10B7D2BC20B7D2B822B83120313F0
:100708009F1408007E088A007F0882000A128A1156
:1007180086230A128A118000840A04087D060319B8
:0A0728000034FF0A0319FE0A8A2BB1
:04400E00D420FF3F7C
:00000001FF
