:020000040000FA
:060000000A128A110E280D
:10000800FE00030EF7000408F8000A08F9000A12B7
:100018008A11222A0A128A11112883133130FD000D
:100028000330FE007430FF00203084000A128A1169
:1000380065230A128A11B901BA01BB01FA01FB0151
:10004800FC01FD0183010A128A11B62983120313E8
:10005800B50043283F309F0565281F083F394038C1
:100068009F0065281F083F3980389F006528C030E9
:100078009F0465281F083F3940389F0065283508C8
:10008800B300B4013408003A03194B283E2833085A
:10009800013A03192E28053A031931280C3A031995
:1000A80036281C3A03193B283E28831603139F134E
:1000B800DB28831603139F17DB28831603139F136C
:1000C800DB283208B300B4013408003A03196D285C
:1000D80061283308483A03195928043A03195D2856
:1000E8006128831603130514831603170814C330F5
:1000F800831203139F05FF288316031385148316A1
:1001080003178814831203131F08C33904389F0088
:10011800FF28831603130515831603170815831282
:1001280003131F08C33908389F00FF2883160313D9
:100138008515831603178815831203131F08C339FF
:100148000C389F00FF2883160313851683160317A0
:100158000816831203131F08C3390C389F00FF28A1
:1001680083160313091483160317881683120313BF
:100178001F08C33914389F00FF28831603138914F6
:10018800831603170817831203131F08C339183877
:100198009F00FF2883160313091583160317881772
:1001A800831203131F08C3391C389F00FF288312CA
:1001B80003133108B300B4013408003A0319E528E1
:1001C800FF283308003A03197528013A03198028D3
:1001D800033A03198D28013A03199A28073A031993
:1001E800A728013A0319B428033A0319C128013A88
:1001F8000319CE28FF281F140C13831603130C179A
:100208000B17273083120313B400F430B300B30B79
:100218000B29B40B0B290000831203139F14080049
:1002280083160313880183120313880183160313AB
:1002380007110710831203130711071072298F3053
:10024800831603138F05AA29831603130F088F3902
:1002580010388F00AA29831603130F088F39203806
:100268008F00AA29831603130F088F3930388F009F
:10027800AA29831603130F088F3940388F00AA293B
:10028800831603130F088F3950388F00AA29831655
:1002980003130F088F3960388F000108F8390638C2
:1002A8008100B13083120313B3003308B000AA29C8
:1002B8007030831603138F040108F839063881005B
:1002C800623083120313B3003308B000AA298316DF
:1002D80003130F088F3960388F00AA293208003AB3
:1002E80003198629013A03199129023A0319962913
:1002F800043A03199B29083A0319A029103A03194B
:10030800A5296B2931081F3A03192329623A0319D1
:100318002829873A03192F296B293108F43A031938
:1003280036296B293108E83A03193D296B29310828
:10033800D03A031944296B293108A03A03194B29EB
:100348006B293108403A03195C296B29831603137A
:1003580081120112811183120313300881000B11DD
:100368008B1608000A128A112E230A128A11A0304D
:1003780083120313B1000F30B2000A128A1114213C
:100388000A128A11053083120313B6003608B10029
:100398004830B7003708B20008300A128A112A20FC
:1003A8000A128A118B17831203133B03031DDD29DD
:1003B800DE29142A0930B6003608B90048300A1276
:1003C8008A110A230A128A1183120313B600360807
:1003D800B80038080506031DF229F329F529891400
:1003E800FC29380805060319FA29FB29FC29891074
:1003F80038080F39B6003608B9003808B600043096
:100408000310B60CFF3E031D042A36080F39B70047
:100418003708BA00BB010A128A114C230A128A1142
:100428000A128A1166220A128A110A128A11A22253
:100438000A128A11D7290A128A110E288312031365
:100448000C1F272A282A332A831603130C1F2D2A48
:100458002E2A332A0C1383120313BB01BB0A0B1C6D
:10046800362A372A442A8B1D3A2A3B2A442A0B105B
:100478007D08031D402A412A442AFD01FD0A8B11EB
:100488000B1D472A482A5D2A8B1E4B2A4C2A5D2AB7
:10049800FA0983123A08F5007508F0007A08F600A0
:1004A8007608F10039080A128A11DE220A128A1126
:1004B8000B1179088A0078088400770E8300FE0EF5
:1004C8007E0E09007D03031D6A2A6B2A8A2A7C088E
:1004D800031D6F2A702A8A2A831203130618752AA5
:1004E800762A8A2A5A3083120313B2009A30B1004E
:1004F800B10B7C2AB20B7C2A000083120313050877
:10050800013E8500FD01FC01FC0A8B157C03031DDF
:100518008E2A8F2AA12A83120313061C942A952A4D
:10052800A12A5A3083120313B2009A30B100B10BDA
:100538009B2AB20B9B2A0000FC0108007D03031DC7
:10054800A62AA72AC62A7B08031DAB2AAC2AC62AD4
:10055800831203130619B12AB22AC62A5A30831203
:100568000313B2009A30B100B10BB82AB20BB82A03
:100578000000831203130508FF3E8500FD01FB01FF
:10058800FB0A8B157B03031DCA2ACB2ADD2A83129B
:100598000313061DD02AD12ADD2A5A3083120313E9
:1005A800B2009A30B100B10BD72AB20BD72A00009B
:1005B800FB010800F4008312031330088100F92AB4
:1005C80007107408203E840083130008880007156C
:1005D800092B07117008203E840083130008880047
:1005E8000714092B08088800092B7108F200F30189
:1005F8007308003A0319012BF62A7208003A031906
:10060800E42AFF3A0319ED2AF62A08008312031395
:10061800B3001C2B1E08B1003108B4002C2B831624
:1006280003131E0883120313B1003108B4002C2BE6
:100638003308B100B2013208003A0319242B0E2BFB
:100648003108483A03190E2B043A0319132B0E2BC1
:1006580034080800FF30831603138800FF30870032
:1006680085010530860089018312031389018501FC
:1006780086018701880183160317880189010530DF
:100688008316031395008113053096008B15080017
:10069800831203130C13831603130C171A308312D7
:1006A8000313B200F730B100B10B582BB20B582B23
:1006B8005D2B831203139F1408007E088A007F08AD
:1006C80082000A128A1161230A128A118000840AA0
:1006D80004087D0603190034FF0A0319FE0A652B76
:1006E8003F3406345B344F3466346D347D3407341C
:1006F8007F346F3477347C3439345E3479347134F0
:02070800833438
:04400E00D420FF3F7C
:00000001FF
