:020000040000FA
:060000000A128A11FA2F1A
:100D4E00831203130C13831603130C173430F100A4
:100D5E00F130F000F00BB12EF10BB12EB62E831246
:100D6E0003139F1408008312031385018601870164
:100D7E0088018901213083160313850086018801BD
:100D8E00183087008901831603178801081489011A
:100D9E000800F200E02E831203131E08F000700804
:100DAE00F300F02E831603131E08F0007008F300F4
:100DBE00F02E7208F000F1017108003A0319E82EC6
:100DCE00D22E7008003A0319D22E013A0319D92EE9
:100DDE00D22E730808000A128A11BA260A128A1134
:100DEE000030F000F1000A128A115E270A128A11F1
:100DFE0001300A128A111B270A128A1100300A12B8
:100E0E008A11D0260A128A11F4007408F5007508AA
:100E1E008312031388000A128A11A7260A128A1156
:100E2E00052F0A128A110028F200362F831203139F
:100E3E001F131F134C2F831203131F131F174C2F37
:100E4E00831203131F171F134C2F831203131F1725
:100E5E001F174C2F831203131F131F134C2F7208CF
:100E6E00F000F1017108003A03193E2F312F70087E
:100E7E00003A03191D2F013A0319222F033A0319C1
:100E8E00272F013A03192C2F312F1F140C13831601
:100E9E0003130C170B174E30F100EB30F000F00B74
:100EAE00562FF10B562F831203139F140800C82FD1
:100EBE00831203139F121F129F111F11F92F8312FA
:100ECE0003139F121F129F111F15F92F8312031365
:100EDE009F121F129F151F11F92F831203139F12BA
:100EEE001F129F151F15F92F831203139F121F1622
:100EFE009F111F11F92F831203139F121F169F119B
:100F0E001F15F92F831203139F121F169F151F1102
:100F1E00F92F831203139F121F169F151F15F92FFA
:100F2E00831203139F161F129F111F11F92F831285
:100F3E0003139F161F129F111F15F92F83120313F0
:100F4E009F161F129F151F11F92F831203139F1641
:100F5E001F129F151F15F92F831203139F161F16AD
:100F6E009F111F11F92F831203139F161F169F1126
:100F7E001F15F92F831203139F121F129F111F119A
:100F8E00F92F7108003A0319CD2FC12F7008003ABE
:100F9E0003195F2F013A0319662F033A03196D2FB8
:100FAE00013A0319742F073A03197B2F013A0319DB
:100FBE00822F033A0319892F013A0319902F0F3A02
:100FCE000319972F013A03199E2F033A0319A52FE0
:100FDE00013A0319AC2F073A0319B32F013A03193B
:100FEE00BA2FC12F0800F501F60183010A128A11EA
:020FFE00F22ED1
:04400E00D720FF3F79
:00000001FF
