:020000040000FA
:060000000A128A11FA2F1A
:100D18008312031394124030831603139400243073
:100D280083120313940094160800831203130C1300
:100D3800831603130C173430F100F130F000F00B78
:100D4800A32EF10BA32EA82E831203139F140800C1
:100D580083120313850186018701880189012130E7
:100D680083160313850086018801283087008901CE
:100D7800831603178801081489010800F200D22E8F
:100D8800831203131E08F0007008F300E22E831686
:100D980003131E08F0007008F300E22E7208F0003A
:100DA800F1017108003A0319DA2EC42E7008003ACE
:100DB8000319C42E013A0319CB2EC42E7308080058
:100DC8000A128A11AC260A128A110A128A118C2672
:100DD8000A128A111A30F500F830F400F40BF22EDA
:100DE800F50BF22E00000030F000F1000A128A1113
:100DF8005E270A128A1101300A128A111B270A1269
:100E08008A1100300A128A11C2260A128A11F400C5
:100E18007408F60076088312031388000A128A11F0
:100E280099260A128A11052F0A128A110028F2003F
:100E3800362F831203131F131F134C2F8312031310
:100E48001F131F174C2F831203131F171F134C2F29
:100E5800831203131F171F174C2F831203131F131B
:100E68001F134C2F7208F000F1017108003A0319A2
:100E78003E2F312F7008003A03191D2F013A03192C
:100E8800222F033A0319272F013A03192C2F312F48
:100E98001F140C13831603130C170B174E30F10095
:100EA800EB30F000F00B562FF10B562F8312031383
:100EB8009F140800C82F831203139F121F129F113B
:100EC8001F11F92F831203139F121F129F111F1551
:100ED800F92F831203139F121F129F151F11F92F49
:100EE800831203139F121F129F151F15F92F8312C8
:100EF80003139F121F169F111F11F92F831203133B
:100F08009F121F169F111F15F92F831203139F128B
:100F18001F169F151F11F92F831203139F121F16F7
:100F28009F151F15F92F831203139F161F129F1168
:100F38001F11F92F831203139F161F129F111F15DC
:100F4800F92F831203139F161F129F151F11F92FD4
:100F5800831203139F161F129F151F15F92F831253
:100F680003139F161F169F111F11F92F83120313C6
:100F78009F161F169F111F15F92F831203139F1217
:100F88001F129F111F11F92F7108003A0319CD2F55
:100F9800C12F7008003A03195F2F013A0319662F11
:100FA800033A03196D2F013A0319742F073A0319ED
:100FB8007B2F013A0319822F033A0319892F013A2B
:100FC8000319902F0F3A0319972F013A03199E2FEF
:100FD800033A0319A52F013A0319AC2F073A03194D
:100FE800B32F013A0319BA2FC12F0800F601F701F0
:080FF80083010A128A11E42EA4
:04400E00D720FF3F79
:00000001FF
