:020000040000FA
:100000000A128A11F32F831203130C13831603139E
:100010000C173430F100F130F000F00B0D28F10B2B
:100020000D281228831203139F140800F2003128B0
:10003000831203131F131F134728831203131F1365
:100040001F174728831203131F171F1347288312F4
:1000500003131F171F174728831203131F131F13A0
:1000600047287208F000F1017108003A0319392895
:100070002C287008003A03191828013A03191D2882
:10008000033A03192228013A031927282C281F14A0
:100090000C13831603130C170B174E30F100EB30C3
:1000A000F000F00B5128F10B5128831203139F1419
:1000B0000800C328831203139F121F129F111F11E0
:1000C000F428831203139F121F129F111F15F42887
:1000D000831203139F121F129F151F11F4288312FE
:1000E00003139F121F129F151F15F4288312031369
:1000F0009F121F169F111F11F428831203139F12C2
:100100001F169F111F15F428831203139F121F1629
:100110009F151F11F428831203139F121F169F159A
:100120001F15F428831203139F161F129F111F110E
:10013000F428831203139F161F129F111F15F42812
:10014000831203139F161F129F151F11F428831289
:1001500003139F161F129F151F15F42883120313F4
:100160009F161F169F111F11F428831203139F1649
:100170001F169F111F15F428831203139F121F12BD
:100180009F111F11F4287108003A0319C828BC28D0
:100190007008003A03195A28013A03196128033AF2
:1001A00003196828013A03196F28073A03197628BA
:1001B000013A03197D28033A03198428013A0319E7
:1001C0008B280F3A03199228013A03199928033A08
:1001D0000319A028013A0319A728073A0319AE28E2
:1001E000013A0319B528BC280800F800780803195B
:1001F000FA28FB280F29F31FFE28FF280F29700972
:10020000FA007109FB007209FC007309FD00FA0A8B
:100210000319FB0A0319FC0A0319FD0A17297308BD
:10022000FD007208FC007108FB007008FA007308FA
:10023000720471047004031D1E291F29282900302F
:10024000F3000030F2000030F1000030F000AE2981
:100250009630F4007408F9003A290130F40074086B
:10026000F90701300310FD0CFC0CFB0CFA0CFF3EEF
:10027000031D3229FE307D05031D3F2940292D290C
:100280005C290130F4007408F9070130FA070030E6
:1002900003180130FB07003003180130FC07003061
:1002A00003180130FD0701300310FD0CFC0CFB0CA2
:1002B000FA0CFF3E031D5429FF307D05031D612903
:1002C000622941296E290130F9020130F40003103E
:1002D000FA0DFB0DFC0DFD0DF40B6729FC1B7129BC
:1002E000722978290230790203187729782963293D
:1002F00079187B297C298429FF30FA05FF30FB051A
:100300007F30FC05FF30FD050310F90C7908F4007F
:10031000F501F601F70118300310F40DF50DF60D97
:10032000F70DFF3E031D8C297408FA047508FB04C1
:100330007608FC047708FD0478080319A029A12990
:10034000A629F31FA429A529A629FD177D08F300D6
:100350007C08F2007B08F1007A08F00008000A121D
:100360008A151C270A128A111A3083120313D5002A
:10037000F730D400D40BBA29D50BBA29BF290030E5
:10038000F000F1000A128A1159200A128A11013074
:100390000A128A1116200A128A1100300A128A15CE
:1003A0003D270A128A1183120313D4005408E50072
:1003B00001300A128A153D270A128A11831203138B
:1003C000D4005408E4006508D400D5015408DC00CA
:1003D0005508DD005D08D5005C08D4000310D40D7D
:1003E000D50D0310D40DD50D5408DC005508DD00E3
:1003F0006408D400D5015408DA005508DB005B0816
:10040000D5005A08D40006300310D50CD40CFF3E9A
:10041000031D042A5408DA005508DB005A085C075B
:10042000DE005B0803185B0A5D07DF004330BD0098
:100430008F30BC000030BB000030BA004330A30056
:100440000C30A2000030A1000030A0005E08F000D7
:100450005F08F100F201F30100300A128A11F52061
:100460000A128A11730883120313A7007208A600E8
:100470007108A5007008A4000A128A1192240A12B9
:100480008A11831203132308C1002208C000210827
:10049000BF002008BE000A128A11B5220A128A1172
:1004A000831203133D08D9003C08D8003B08D7004D
:1004B0003A08D6005908F3005808F2005708F1002E
:1004C0005608F0000A128A1586270A128A11700847
:1004D00083120313D4005408E300630888000A124F
:1004E0008A1103200A128A110D308312031363024A
:1004F00003187B2A7C2A802A061086100615992A62
:100500000D306302031C852A862A902A1330630269
:1005100003188B2A8C2A902A061086140611992A11
:1005200013306302031C952A962A992A0614861012
:1005300006118316031314189E2A9F2AA32A8312D6
:1005400003136308930083160313141CA82AA92A13
:10055000CD29831203131308D4005408E000630864
:100560009300CD290A128A1100288312031341082F
:100570008039C2004208CB004108C2004207C300D4
:100580004308D200C01FC52AC62AC72A52145208DF
:100590000319CB2ACC2ADC2A520A031DD02AD12ADD
:1005A000D92A0030C1000030C0000030BF00003048
:1005B000BE00C017C101E42A0030C1000030C000F5
:1005C0000030BF000030BE003D088039C200420844
:1005D000CB063D08C2004207C3004308D300BC1F3E
:1005E000F22AF32AF42A531453080319F82AF92A91
:1005F000092B530A031DFD2AFE2A062B0030BD00DD
:100600000030BC000030BB000030BA00BC17BD0198
:10061000112B0030BD000030BC000030BB000030AA
:10062000BA003D083C043B043A04031D182B192B67
:10063000322B0030C1000030C0000030BF0000305D
:10064000BE008030C0047F30C1044B08C2004208A5
:10065000C1044108BD004008BC003F08BB003E0883
:10066000BA00912C5208031D362B372B402B00303B
:10067000BD000030BC000030BB000030BA00912C3F
:100680005208C200C3014308C50053084202C40017
:10069000031CC50344087F3ECC0045080318013EF7
:1006A000003ECD004108CA004008C9003F08C8000C
:1006B0003E08C7000030C1000030C0000030BF005D
:1006C0000030BE000030D1000030D0000030CF003C
:1006D0000030CE00D301B62B53080319702B712BB9
:1006E000912B0130C2000310C70DC80DC90DCA0DF2
:1006F000C20B732B0130C2000310BE0DBF0DC00D25
:10070000C10DC20B7C2BD11F862B872B882B3E144F
:100710000130C2000310CE0DCF0DD00DD10DC20B94
:100720008A2B3D084A02031D9F2B3C084902031DEA
:100730009F2B3B084802031D9F2B3A084702031CCE
:10074000A22BA32BB22B51173A08C7023B08031C5C
:100750003B0FC8023C08031C3C0FC9023D08031CA8
:100760003D0FCA020130C2004208D3071A305302BB
:10077000031CBB2BBC2B6C2B4A08490448044704C0
:100780000319C32BC42BE32B4E14E32B0130C200FF
:100790000310BE0DBF0DC00DC10DC20BC82BD11F64
:1007A000D22BD32BD42B3E140130C2000310CE0D1C
:1007B000CF0DD00DD10DC20BD62BFF30CC070318B7
:1007C000CD0AFF30CD07C01FE62BE72BC62BD30188
:1007D000D11FEB2BEC2B082CFF304E05C200FF3055
:1007E0004F05C300FF305005C4007F305105C500E0
:1007F00045084404430442040319FF2B002C032C36
:10080000D301D30A082C3E1C062C072C082C002CE4
:10081000530803190C2C0D2C3E2C0130BE07003060
:1008200003180130BF07003003180130C007003043
:1008300003180130C107411C1E2C1F2C3E2C3E0802
:10084000C2003F08C3004008C4004108C500013091
:10085000C600450DC50CC40CC30CC20CC60B292C1C
:100860004508C1004408C0004308BF004208BE005C
:100870000130CC070318CD0A0030CD074D08803A6F
:10088000FF0080307F02031D472CFF304C02031C09
:100890004A2C4B2C592CFF3083120313CC00003010
:1008A000CD000030C1000030C0000030BF0000307B
:1008B000BE00831203134D08803AFF0080307F0290
:1008C000031D642C01304C020318672C682C752C16
:1008D00083120313CC01CD010030C1000030C000F1
:1008E0000030BF000030BE00CB01831203134C0860
:1008F000C2004208D200521C7E2C7F2C812CC017D3
:10090000852C7F30C2004208C0055208C200031087
:10091000420CC3004308C1004B08C2004208C10496
:10092000292B08008312031323088039A800280804
:10093000AD002308A8002807A9002908B300A21FBA
:10094000A22CA32CA42C331433080319A82CA92CF3
:10095000B82C330A031DAD2CAE2CB62C0030A300EE
:100960000030A2000030A1000030A000A217C02C6F
:100970000030A3000030A2000030A1000030A00031
:1009800027088039A8002808AD062708A8002807EE
:10099000A9002908B200A61FCE2CCF2CD02C3214CF
:1009A00032080319D42CD52CE42C320A031DD92C7F
:1009B000DA2CE22C0030A7000030A6000030A500A1
:1009C0000030A400A617EC2C0030A7000030A600D1
:1009D0000030A5000030A40032080319F02CF12CDF
:1009E000F62C3308031DF52CF62CFF2C0030A30049
:1009F0000030A2000030A1000030A000F22F20083B
:100A0000A8002808F00026080A128A155F270A1293
:100A10008A11710883120313B9007008B8003808EE
:100A2000A800A901AA01AB012B08B1002A08B00057
:100A30002908AF002808AE003908A800A901AA01BA
:100A4000AB012B08B7002A08B6002908B500280812
:100A5000B4002108A8002808F00025080A128A1509
:100A60005F270A128A11710883120313B9007008F4
:100A7000B8003808A800A901AA01AB012808AE07F0
:100A8000290803110318013E0319472DAF072A084F
:100A900003110318013E03194E2DB0072B08031153
:100AA0000318013E0319552DB1073908A800A90103
:100AB000AA01AB012808B407290803110318013E55
:100AC0000319632DB5072A0803110318013E031902
:100AD0006A2DB6072B0803110318013E0319712D67
:100AE000B7072208A8002808F00024080A128A156F
:100AF0005F270A128A11710883120313B900700864
:100B0000B8003808A800A901AA01AB012808AE075F
:100B1000290803110318013E03198F2DAF072A0876
:100B200003110318013E0319962DB0072B0803117A
:100B30000318013E03199D2DB1073908A800A9012A
:100B4000AA01AB012808B407290803110318013EC4
:100B50000319AB2DB5072A0803110318013E031929
:100B6000B22DB6072B0803110318013E0319B92D46
:100B7000B7070830A8000310AE0DAF0DB00DB10DD2
:100B8000A80BBB2D2108A8002808F00024080A1291
:100B90008A155F270A128A11710883120313B9009C
:100BA0007008B8003808A8003908A900AA01AB01EC
:100BB0002808AE07290803110318013E0319E12D87
:100BC000AF072A0803110318013E0319E82DB007E7
:100BD0002B0803110318013E0319EF2DB10720085C
:100BE000A8002808F00025080A128A155F270A12B3
:100BF0008A11710883120313B9007008B80038080D
:100C0000A8003908A900AA01AB012808AE072908E5
:100C100003110318013E03190E2EAF072A08031112
:100C20000318013E0319152EB0072B0803110318F2
:100C3000013E03191C2EB1070830A8000310AE0DA9
:100C4000AF0DB00DB10DA80B1E2E2008A80028086E
:100C5000F00024080A128A155F270A128A11710807
:100C600083120313B9007008B8003808A8003908C7
:100C7000A900AA01AB012808AE072908031103182F
:100C8000013E0319442EAF072A0803110318013E41
:100C900003194B2EB0072B0803110318013E03194B
:100CA000522EB1072108A8002808F00026080A12D1
:100CB0008A155F270A128A11710883120313B9007B
:100CC0007008B8003808A8003908A900AA01AB01CB
:100CD0002808B407290803110318013E0319712ECF
:100CE000B5072A0803110318013E0319782EB60729
:100CF0002B0803110318013E03197F2EB7072208A2
:100D0000A8002808F00025080A128A155F270A1291
:100D10008A11710883120313B9007008B8003808EB
:100D2000A8003908A900AA01AB012808B4072908BE
:100D300003110318013E03199E2EB5072A0803115B
:100D40000318013E0319A52EB6072B08031103183B
:100D5000013E0319AC2EB7072208A8002808F000AE
:100D600026080A128A155F270A128A11710883124F
:100D70000313B9007008B8003808A8003908A900A2
:100D8000AA01AB0108300310A80DA90DAA0DAB0DE7
:100D9000FF3E031DC32E2808B407290803110318BA
:100DA000013E0319D42EB5072A0803110318013E8A
:100DB0000319DB2EB6072B0803110318013E031994
:100DC000E22EB7072E08A8002F08A9003008AA00B5
:100DD0003108AB0018300310AB0CAA0CA90CA80CFE
:100DE000FF3E031DEB2E2808B40729080311031842
:100DF000013E0319FC2EB5072A0803110318013E12
:100E00000319032FB6072B0803110318013E03191A
:100E10000A2FB7070830A8000310AE0DAF0DB00DB4
:100E2000B10DA80B0C2F33083207A800A901A90D9A
:100E30002808823EB80029080318013EFF3EB90089
:100E40003E2F0130A8000310B40DB50DB60DB70D3F
:100E5000A80B232FB11F2D2F2E2F2F2F341401302D
:100E6000A8000310AE0DAF0DB00DB10DA80B312FC2
:100E7000FF30B8070318B90AFF30B907B61F412F72
:100E8000422F212FB201B11F462F472F632FFF3072
:100E90002E05A800FF302F05A900FF303005AA005D
:100EA0007F303105AB002B082A04290428040319DC
:100EB0005A2F5B2F5E2FB201B20A632F341C612FB1
:100EC000622F632F5B2F32080319672F682F992F2A
:100ED0000130B407003003180130B50700300318A3
:100EE0000130B607003003180130B707371C792FDF
:100EF0007A2F992F3408A8003508A9003608AA00CF
:100F00003708AB000130AC002B0DAB0CAA0CA90CC0
:100F1000A80CAC0B842F2B08B7002A08B6002908B0
:100F2000B5002808B4000130B8070318B90A00302A
:100F3000B9073908803AFF0080307F02031DA22FD5
:100F4000FF303802031CA52FA62FB12F7F3083124C
:100F50000313B7008030B6000030B5000030B40095
:100F6000E62F831203133908803AFF0080307F0296
:100F7000031DBC2F013038020318BF2FC02FCC2F08
:100F8000003083120313B7000030B6000030B50004
:100F90000030B400AD01E62F831203133808A80017
:100FA0002808B300FF30B405FF30B5057F30B60523
:100FB0000030B705331CDD2FDE2FDF2FB6173308C7
:100FC000A8000310280CA9002908B7002D08A800C4
:100FD0002808B7043708A3003608A2003508A10086
:100FE0003408A000080083135630840066300A12CB
:100FF0008A1514270A128A1183010A128A11AF294D
:101E280064008001840A0406031900340406152F8F
:101E380083120313850186018701880189012130F6
:101E480083160313850086018801183087008901ED
:101E58008316031788010814890183120313941247
:101E680083160313940114308312031394009416F9
:101E78000800F2004D2F831203131E08F0007008AB
:101E8800F3005D2F831603131E08F0007008F3009B
:101E98005D2F7208F000F1017108003A0319552FFF
:101EA8003F2F7008003A03193F2F013A0319462FB4
:101EB8003F2F73080800F800F401F5017008F200DC
:101EC800F3017208F6007308F700781C6C2F6D2F69
:101ED800732F7608F4070318F50A7708F507013019
:101EE8000310F60DF70DFF3E031D742F0310F80CB9
:101EF8007808031D802F812F692F7508F100740859
:101F0800F00008000310720D730DF4007408FA0055
:101F18007A08031D902F912F9A2F0030F30000307C
:101F2800F2000030F1000030F000FF2F7008F400DC
:101F38007108F5007208F6007308F7001F300310E7
:101F4800F70CF60CF50CF40CFF3E031DA32F7408D8
:101F5800F8007808F900F217FF30F005FF30F105B6
:101F6800FF30F2050030F3059630FA02FA1FBD2F54
:101F7800BE2FD82F7A08803A973E0318C42FC52F52
:101F8800C62F912F01300310F30CF20CF10CF00C5A
:101F9800FF3E031DC72F0130F4007408FA07031D24
:101FA800D62FD72FC62FEF2F20307A02031CDD2F14
:101FB800DE2FEA2F912F0130F4000310F00DF10D00
:101FC800F20DF30DF40BE12F0130FA027A08031D2C
:101FD800EE2FEF2FDF2F79080319F32FF42FFF2FA0
:101FE800F009F109F209F309F00A0319F10A0319D2
:081FF800F20A0319F30A0800C4
:04400E00D720FF3F79
:00000001FF
