:020000040000FA
:060000000A128A11F92F1B
:100F78008312031394124030831603139400243011
:100F88008312031394009416080083120313850137
:100F9800860187018801890183160313850194302E
:100FA8008700043089008316031788018901080027
:100FB8000A128A11C9270A128A110A128A11BC2731
:100FC8000A128A11831203138C1DEB2FEC2FE62FC4
:100FD8001308F300F4017308F0007408F1007008B6
:100FE8008800E62F0A128A110028F001F101F201A7
:080FF80083010A128A11DC2FAB
:04400E00D520FF3F7B
:00000001FF
