:020000040000FA
:060000000A128A110E280D
:10000800FE00030EF2000408F3000A08F4000A12C6
:100018008A117B2A0A128A11112883134F30FD0096
:100028000230FE00F130FF00473084000A128A11C6
:10003800AF220A128A110A128A1101230A128A119E
:10004800F8000A128A1102230A128A11F9003630BE
:10005800840047300A128A11F9220A128A11F5011E
:10006800F601F70183010A128A11122A003083125D
:100078000313AC000030AB000030AA000030A90028
:10008800230822042104200403194B284C2899280A
:10009800AD01AD0A5C280130A8000310A00DA10D28
:1000A800A20DA30DA80B51280130A8002808AD0700
:1000B800A31F5F2860284F280130A8000310A90D4E
:1000C800AA0DAB0DAC0DA80B622823082702031D4F
:1000D800772822082602031D772821082502031DF8
:1000E800772820082402031C7A287B288A282008DD
:1000F800A4022108031C210FA5022208031C220FB9
:10010800A6022308031C230FA70229140130031099
:10011800A30CA20CA10CA00CFF3E031D8B280130E0
:10012800AD02031D9828992860282C08A3002B08E5
:10013800A2002A08A1002908A000080032300A12EB
:100148008A11F7200A128A11831203132608AD00B8
:100158002D08C60033300A128A11F7200A128A11B4
:10016800831203132608AD002D08C5004408AD000E
:100178002D08F50034300A128A11F7200A128A1164
:10018800831203132608AD002D08C40035300A1267
:100198008A11F7200A128A11831203132608AD0068
:1001A8002D08C3004408AD002D08BF0036300A12E0
:1001B8008A11F7200A128A11831203132608AD0048
:1001C8002D08C20037300A128A11F7200A128A1144
:1001D800831203132608AD002D08C1004208AD00A4
:1001E8002D08C000080083120313AA000A128A11FE
:1001F800E8220A128A11A63083120313A0000030E5
:10020800A1000A128A11D5220A128A118312031335
:100218002A08A800A9012808A0002908A1000A1294
:100228008A11D5220A128A110A128A11E8220A12A0
:100238008A11A73083120313A0000030A1000A120C
:100248008A11D5220A128A11003083120313A000E2
:10025800A1000A128A11B3210A128A118312031308
:100268002108AC002008AB000A128A11DF220A120A
:100278008A11831203132C08A7002B08A600080074
:1002880028308312031394008316031391018312F9
:1002980003132E08B2002F08B3003008B400310849
:1002A800B50002300310B20DB30DB40DB50DFF3E0D
:1002B800031D56293508A3003408A2003308A100FD
:1002C8003208A0000030A7007A30A6001230A5003E
:1002D8000030A4000A128A113A200A128A118312E5
:1002E80003132008FF3E8316031393009401871518
:1002F8000716080083120313A5000A128A11E822C0
:100308000A128A11A63083120313A0000030A1003C
:100318000A128A11D5220A128A1183120313250898
:10032800A300A4012308A0002408A1000A128A112E
:10033800D5220A128A11831203132208A300A401EA
:100348002308A0002408A1000A128A11D5220A1243
:100358008A110A128A11DF220A128A1108000A1267
:100368008A11BE220A128A118316031391150A12E2
:100378008A11BE220A128A11831203131308A200DB
:10038800A3012208A4002308A5000A128A11BE228C
:100398000A128A118312031320032104031DD5298D
:1003A800D629DA29831603139112DD29831603133C
:1003B80091161116831203132508A1002408A00022
:1003C80008000B3083120313A6002608A200313060
:1003D8000A128A117E210A128A110D308312031320
:1003E800A700FB30A600A60BF729A70BF7290830B2
:1003F80083120313A6002608A2002D300A128A11C0
:100408007E210A128A110D3083120313A700FB30D4
:10041800A600A60B0D2AA70B0D2A08000A128A119E
:100428003D220A128A110A128A1195220A128A1189
:10043800003083120313B1000130B0008630AF00E2
:10044800A030AE000A128A1144210A128A110A1237
:100458008A11E5210A128A11FF30831203138500DD
:100468000A128A11A2200A128A11342A0A128A113F
:100478000E28831603130F178F160F1683120313F4
:100488008501860187018801890183160313850187
:1004980086011030870088018901071387178316A2
:1004A8000317880189018B170B17831603130C1682
:1004B80008006A2A0130F0007008F60703307A2A2B
:1004C8000130F0007008F60701307A2A7608F0004B
:1004D800F1017108003A0319722A7A2A7008003A61
:1004E80003195E2A013A0319642A7A2A08008B1331
:1004F800831203130C1E812A822A8B2A0C120A12D9
:100508008A115D220A128A118312031399008B172C
:1005180074088A0073088400720E8300FE0E7E0E33
:1005280009008316031307138717181318121811D5
:100538008316031787110C308316031399009A0149
:1005480098168312031398171813181608007E08B4
:100558008A007F0882000A128A11AB220A128A11C5
:100568008000840A04087D0603190034FF0A031971
:10057800FE0AAF2A831603131419C32AC42ABE2AF3
:1005880011081F39031DC92ACA2ABE2A08000230C9
:100598008A000408840A820700342C340034313479
:1005A80000340A128A11BE220A128A118312031316
:1005B8002008930008000A128A11BE220A128A1122
:1005C80083160313111508000A128A11BE220A1293
:1005D8008A1183160313111408003734363435345E
:1005E800343433343234A734A63464008001840AA6
:0E05F8000406031900340406FA2A31342D34A7
:04400E00FD3FFF3F34
:00000001FF
