:020000040000FA
:060000000A128A1110280B
:10000800FE00030E83120313A2000408A3000A08CB
:10001800A4000A128A11B12C0A128A111328831318
:100028005830FD000430FE00FF30FF004E308400E1
:100038000A128A11E3240A128A113B3084004E30D6
:100048000A128A1125250A128A11FD0183010A1252
:100058008A11662C8C280A128A1142220A128A11E5
:10006800013083120313A0002008CC074108303E5A
:10007800BC280130A0002008CC074208303EBC282C
:100088000130A0002008CC074308303EBC280130CE
:10009800A0002008CC072C30BC280A128A11E721BE
:1000A8000A128A11013083120313A0002008CC071A
:1000B8003E08303EBC280130A0002008CC073F088D
:1000C800303EBC280130A0002008CC074008303E54
:1000D800BC280A128A118C210A128A110130831253
:1000E8000313A0002008CC073B08303EBC28013091
:1000F800A0002008CC073C08303EBC280130A000F6
:100108002008CC073D08303EBC28CC010D30BC2867
:10011800831203134C08A000A1012108003A031917
:100128009628BC282008003A03192F28013A0319F9
:100138003D28033A03194428013A03194B28073A82
:1001480003195128013A03195F28033A031966284D
:10015800013A03194B280F3A03196D28013A03197C
:100168007B28033A03198228013A03198928BC28F5
:100178000800003083120313B1000030B0000030D3
:10018800AF000030AE002808270426042504031910
:10019800CE28CF281C29B201B20ADF280130AD00D1
:1001A8000310A50DA60DA70DA80DAD0BD428013081
:1001B800AD002D08B207A81FE228E328D228013095
:1001C800AD000310AE0DAF0DB00DB10DAD0BE528B0
:1001D80028082C02031DFA2827082B02031DFA28D9
:1001E80026082A02031DFA2825082902031CFD28CF
:1001F800FE280D292508A9022608031C260FAA0295
:100208002708031C270FAB022808031C280FAC0281
:100218002E1401300310A80CA70CA60CA50CFF3E49
:10022800031D0E290130B202031D1B291C29E328D6
:100238003108A8003008A7002F08A6002E08A5003E
:100248000800F601F11F29292A293129F009F109A5
:10025800F00A0319F10AF601F60AF31F34293529C1
:100268003E29F209F309F20A0319F30A0130F400EE
:100278007408F606F701F801700871040319452996
:1002880046297D29F501F50A542901300310F00D9E
:10029800F10DFF3E031D4A290130F4007408F507EB
:1002A800F11F57295829492901300310F70DF80D76
:1002B800FF3E031D592971087302031D6529700843
:1002C8007202031C6829692970297008F2027108F2
:1002D800031CF303F302771401300310F10CF00C44
:1002E800FF3E031D71290130F502031D7C297D297C
:1002F800582976080319812982298729F709F809D5
:10030800F70A0319F80A7808F1007708F0000800DE
:100318007D08F9007908FC000A30F0000030F1008F
:100328007C08F900FA017908F2007A08F3000A1249
:100338008A119D220A128A117008FB007B08831219
:100348000313BD000A30F0000030F1007C08F9000A
:10035800FA017908F2007A08F3000A128A112521B5
:100368000A128A117008FB007B08FC000A30F000B2
:100378000030F1007C08F900FA017908F2007A08E7
:10038800F3000A128A119D220A128A117008FB00D2
:100398007B0883120313BC000A30F0000030F10020
:1003A8007C08F900FA017908F2007A08F3000A12C9
:1003B8008A1125210A128A117008FB007B08831212
:1003C8000313BB0008007D08F9007908FC000A3017
:1003D800F0000030F1007C08F900FA017908F20019
:1003E8007A08F3000A128A119D220A128A117008EB
:1003F800FB007B0883120313C0000A30F0000030B2
:10040800F1007C08F900FA017908F2007A08F30093
:100418000A128A1125210A128A117008FB007B082A
:10042800FC000A30F0000030F1007C08F900FA0105
:100438007908F2007A08F3000A128A119D220A123A
:100448008A117008FB007B0883120313BF000A306F
:10045800F0000030F1007C08F900FA017908F20098
:100468007A08F3000A128A1125210A128A117008E3
:10047800FB007B0883120313BE0008007D08F90007
:100488007908FC000A30F0000030F1007C08F9001F
:10049800FA017908F2007A08F3000A128A119D22FB
:1004A8000A128A117008FB007B0883120313C30029
:1004B8000A30F0000030F1007C08F900FA017908F0
:1004C800F2007A08F3000A128A1125210A128A1109
:1004D8007008FB007B08FC000A30F0000030F100D7
:1004E8007C08F900FA017908F2007A08F3000A1288
:1004F8008A119D220A128A117008FB007B08831258
:100508000313C2000A30F0000030F1007C08F90043
:10051800FA017908F2007A08F3000A128A112521F3
:100528000A128A117008FB007B0883120313C100AA
:100538000800F601F31FA12AA22AA92AF209F30941
:10054800F20A0319F30AF601F60AF11FAC2AAD2ADA
:10055800B22AF009F109F00A0319F10A70087104C6
:100568000319B72AB82AE72AF501F50AC62A01307D
:100578000310F00DF10DFF3E031DBC2A0130F400FD
:100588007408F507F11FC92ACA2ABB2A7108730221
:10059800031DD02A70087202031CD32AD42ADA2A2F
:1005A8007008F2027108031CF303F3020130031010
:1005B800F10CF00CFF3E031DDB2A0130F502031D90
:1005C800E62AE72ACA2A76080319EB2AEC2AF12A2E
:1005D800F209F309F20A0319F30A7308F100720821
:1005E800F000080032300A128A114B230A128A11CD
:1005F800831203132B08B2003208CB0033300A12DF
:100608008A114B230A128A11831203132B08B20092
:100618003208CA004B08B2003208FD0034300A1212
:100628008A114B230A128A11831203132B08B20072
:100638003208C90035300A128A114B230A128A116E
:10064800831203132B08B2003208C8004908B2000D
:100658003208C40036300A128A114B230A128A1152
:10066800831203132B08B2003208C70037300A126E
:100678008A114B230A128A11831203132B08B20022
:100688003208C6004708B2003208C50008008312C5
:100698000313B1000A128A111C250A128A11A63006
:1006A80083120313A5000030A6000A128A11092537
:1006B8000A128A11831203133108AD00AE012D0806
:1006C800A5002E08A6000A128A1109250A128A1105
:1006D8000A128A111C250A128A11A73083120313E1
:1006E800A5000030A6000A128A1109250A128A11EB
:1006F800003083120313A500A6000A128A110724EA
:100708000A128A11831203132608B0002508AF00C5
:100718000A128A1113250A128A1183120313300848
:10072800AC002F08AB000800283083120313940094
:10073800831603139101831203133308B700340897
:10074800B8003508B9003608BA0002300310B70DF2
:10075800B80DB90DBA0DFF3E031DAA2B3A08A80023
:100768003908A7003808A6003708A5000030AC00F3
:100778007A30AB001230AA000030A9000A128A11A0
:10078800BD200A128A11831203132508FF3E83161F
:1007980003139300940187150716080083120313A7
:1007A800AA000A128A111C250A128A11A63083127D
:1007B8000313A5000030A6000A128A1109250A129F
:1007C8008A11831203132A08A800A9012808A50082
:1007D8002908A6000A128A1109250A128A11831209
:1007E80003132708A800A9012808A5002908A600BE
:1007F8000A128A1109250A128A110A128A11132566
:100808000A128A1108000A128A11F2240A128A119D
:100818008316031391150A128A11F2240A128A11F7
:10082800831203131308A700A8012708A9002808A2
:10083800AA000A128A11F2240A128A1183120313D7
:1008480025032604031D292C2A2C2E2C831603137A
:100858009112312C83160313911611168312031368
:100868002A08A6002908A50008000B3083120313E4
:10087800AB002B08A70031300A128A11D2230A12C2
:100888008A110D3083120313AC00FB30AB00AB0BA5
:100898004B2CAC0B4B2C083083120313AB002B08EA
:1008A800A7002D300A128A11D2230A128A110D309C
:1008B80083120313AC00FB30AB00AB0B612CAC0B09
:1008C800612C08000A128A1191240A128A110A124C
:1008D8008A11C9240A128A11003083120313B60040
:1008E8000130B5008630B400A030B3000A128A1176
:1008F80098230A128A110A128A1139240A128A11B3
:10090800FF308312031385000A128A11F6220A1295
:100918008A11882C0A128A111028831603130F17BC
:100928008F160F168312031385018601870188012C
:100938008901831603138501860110308700880119
:1009480089010713871783160317880189018B17F5
:100958000B17831603130C1608008B130C1EB52CEB
:10096800B62CBF2C0C120A128A112E200A128A11D8
:100978008312031399008B1724088A002308840024
:10098800220E8300FE0E7E0E090083160313071342
:1009980087171813181218118316031787110C30AC
:1009A8008316031399009A01981683120313981754
:1009B8001813181608007E088A007F0882000A1299
:1009C8008A11DF240A128A118000840A04087D062D
:1009D80003190034FF0A0319FE0AE32C83160313D4
:1009E8001419F72CF82CF22C11081F39031DFD2CB3
:1009F800FE2CF22C08003734363435343434333492
:100A0800323431342D34A734A6340A128A11F22430
:100A18000A128A11831203132508930008000A1288
:100A28008A11F2240A128A11831603131115080079
:100A38000A128A11F2240A128A1183160313111456
:100A4800080064008001840A0406031900340406BF
:020A5800262D49
:04400E00FD3FFF3F34
:00000001FF
