:020000040000FA
:060000000A128A110C280F
:10000800FE00030EF1000A08F2000A128A11E82B1A
:100018000A128A110F2883135430FD000430FE00A1
:100028008530FF004A3084000A128A1169240A12B6
:100038008A11BC01BD01BE01BF01C001C101C201DD
:10004800C301C401C501C601C701C801C901F8013E
:10005800F901FA0183010A128A119E2A83120313F5
:10006800B4002930AF002F08B200FA28253038062E
:1000780003193F284028472838080A128A118F2474
:100088000A128A11FA28B3010130B407FF30340785
:1000980084000A128A1134240A128A11B800AF00A7
:1000A800B0013008003A03195A28FA282F08003AF4
:1000B80003190E29643A031965280D3A03196528AE
:1000C800FA283208840083130008B600840A00085E
:1000D800B7000230AF002F08B207B71F7428752881
:1000E8007E280330AF002F08B304B609B709B60A53
:1000F8000319B70AB801B80A3808AF002F07013E3C
:1001080084000A128A1134240A128A11B0000A12D1
:100118008A1134240A128A11B10031083702031DEA
:1001280097283008360203189A289B289C28A62866
:100138000130AF002F08B80705303806031DA52881
:10014800A6288028330803390319AB28AC28B2281D
:100158002D300A128A118F240A128A11831203136E
:100168003808AF002F08B500EF280A30A300003088
:10017800A4003508AF002F07013E84000A128A1137
:1001880034240A128A11F3000A128A1134240A123A
:100198008A11F4003708F6003608F5000A128A11A9
:1001A80058220A128A11740883120313A6007308CE
:1001B800A5000A128A11E2220A128A118312031375
:1001C8002308303EB0003008B80038080A128A11F7
:1001D8008F240A128A11FF3083120313AF002F08ED
:1001E800B507350A031DF928FA28B9280130831202
:1001F8000313B407FF30340784000A128A11342429
:100208000A128A11AF002F08B8003808031D0D29FB
:100218000E293A28080083120313AD01AE01AF017D
:10022800B00132300A128A1111220A128A1183127D
:1002380003132208A9002908C90033300A128A11B9
:1002480011220A128A11831203132208A90029080D
:10025800C8004808A900AA012908AB002A08AC0070
:100268002C08AA002B08A9002908AA00A901290816
:10027800AB002A08AC0049082B07C0002C0803185B
:100288002C0AC10034300A128A1111220A128A116A
:10029800831203132208A9002908C70035300A125F
:1002A8008A1111220A128A11831203132208A90043
:1002B8002908C6004608A900AA012908AD002A088D
:1002C800AE002E08AA002D08A9002908AA00A90135
:1002D8002908AD002A08AE0047082D07BE002E08E1
:1002E80003182E0ABF0036300A128A1111220A1288
:1002F8008A11831203132208A9002908C500373080
:100308000A128A1111220A128A118312031322086F
:10031800A9002908C4004408A900AA012908AF00B7
:100328002A08B0003008AA002F08A9002908AA0046
:10033800A9012908AF002A08B00045082F07BC000A
:1003480030080318300ABD00080000308312031378
:10035800AB000030AA000030A9000030A800230834
:100368002204210420040319BA29BB29082AAC0154
:10037800AC0ACB290130F3000310A00DA10DA20D8A
:10038800A30DF30BC0290130F3007308AC07A31FBA
:10039800CE29CF29BE290130F3000310A80DA90DDD
:1003A800AA0DAB0DF30BD12923082702031DE6295B
:1003B80022082602031DE62921082502031DE62935
:1003C80020082402031CE929EA29F9292008A402A3
:1003D8002108031C210FA5022208031C220FA602D4
:1003E8002308031C230FA702281401300310A30CB1
:1003F800A20CA10CA00CFF3E031DFA290130AC028F
:10040800031D072A082ACF292B08A3002A08A200BF
:100418002908A1002808A000080083120313A600D9
:100428000A128A11B5240A128A11A630F300003084
:10043800F4000A128A1199240A128A1183120313EA
:100448002608A400A5012408F3002508F4000A12D0
:100458008A1199240A128A110A128A11A3240A12EB
:100468008A11A730F3000030F4000A128A11992487
:100478000A128A110030F300F4000A128A11892343
:100488000A128A11740883120313A8007308A700BC
:100498000A128A11AC240A128A118312031328083B
:1004A800A3002708A200080083120313A101A201D8
:1004B800730874040319612A622A992AA001A00A00
:1004C800702A01300310F30DF40DFF3E031D662A58
:1004D8000130F7007708A007F41F732A742A652AE9
:1004E80001300310A10DA20DFF3E031D752A7408EB
:1004F8007602031D812A73087502031C842A852A43
:100508008C2A7308F5027408031CF603F6022114FA
:1005180001300310F40CF30CFF3E031D8D2A01304B
:10052800A002031D982A992A742A2208F400210897
:10053800F30008000A128A110F240A128A110030E7
:1005480083120313B0000130AF008630AE00A03034
:10055800AD000A128A111E230A128A110A128A1180
:10056800B9230A128A110A128A110F210A128A1152
:10057800831203134108AA004008A9003F08AC00F1
:100588003E08AB003D08AE003C08AD000B300A1237
:100598008A1132200A128A110B3083120313BB000E
:1005A8002630BA005D30B900B90BD82ABA0BD82A60
:1005B800BB0BD82AB72A0A128A110C2883120313F4
:1005C800230824040319E92AEA2A192BA801A80AEE
:1005D800F82A01300310A30DA40DFF3E031DEE2AD7
:1005E8000130A7002708A807A41FFB2AFC2AED2A28
:1005F80024082602031D022B23082502031C052BB1
:10060800062B0C2B2308A5022408031CA603A6020C
:1006180001300310A40CA30CFF3E031D0D2B013069
:10062800A802031D182B192BFC2A2608A40025084C
:10063800A3000800283083120313940083160313C1
:100648009101831203132D08F4002E08F5002F08DA
:10065800F6003008F70002300310F40DF50DF60D22
:10066800F70DFF3E031D302B7708A3007608A20084
:100678007508A1007408A0000030A7003D30A6004E
:100688000930A5000030A4000A128A11A9210A1213
:100698008A11831203132008FF3E83160313930065
:1006A800940187150716080083120313A0000A1285
:1006B8008A11B5240A128A11A630F3000030F4001A
:1006C8000A128A1199240A128A1183120313200824
:1006D800F600F7017608F3007708F4000A128A1189
:1006E80099240A128A117508F600F7017608F300B2
:1006F8007708F4000A128A1199240A128A110A1238
:100708008A11AC240A128A1108000A128A11782464
:100718000A128A118316031391150A128A11782472
:100728000A128A11831203131308F500F6017508DB
:10073800A0007608A1000A128A1178240A128A11E8
:1007480073037404031DA92BAA2BAE2B8316031362
:100758009112B12B831603139116111683120313EA
:100768002108F4002008F30008000B30831203135B
:10077800A1002108F50031300A128A1158230A1203
:100788008A11073083120313A2007C30A100A10B49
:10079800CB2BA20BCB2B0000083083120313A10034
:1007A8002108F5002D300A128A1158230A128A11DD
:1007B800073083120313A2007C30A100A10BE22BA7
:1007C800A20BE22B000008008B13831203138C1E6C
:1007D800EE2BEF2B072C1A08F0007008F8007808A9
:1007E80030390319F82BF92B072C781CFC2BFD2B1F
:1007F800FF2B0514002C0510F81C032C042C062CC8
:100808008514072C85108B1772088A00710E8300D7
:10081800FE0E7E0E0900831603130F178F160F1294
:1008280083120313850186018701880189018316D4
:10083800031385018601870188018901831603173F
:10084800880189010A128A1151240A128A11831611
:1008580003138C16831203138C120B178B170800C3
:1008680004308A000408840A820700340134003402
:100878000A34003464340034E83403341034273440
:10088800253464342C342034253464342C34203416
:10089800253464340D340A340034831603131813D2
:1008A80018121815831603178711193083160313A6
:1008B80099009A019816831203139817181318169B
:1008C80008007E088A007F0882000A128A116524BF
:1008D8000A128A118000840A04087D06031900346C
:1008E800FF0A0319FE0A692C8316031314197D2CB9
:1008F8007E2C782C11081F39031D832C842C782C0E
:1009080008003734363435343434333432343134FF
:100918002D34A734A634F300831203130C1E952C30
:10092800962C902C7308990008000A128A117824D2
:100938000A128A11730883120313930008000A121B
:100948008A1178240A128A11831603139114080055
:100958000A128A1178240A128A11831603131115B0
:1009680008000A128A1178240A128A1183160313BE
:04097800111408004E
:04400E00F53FFF3F3C
:00000001FF
