:020000040000FA
:060000000A128A110E280D
:10000800FE00030EF9000408FA000A08FB000A12B1
:100018008A112F2B0A128A11112883135E30FD00D2
:100028000330FE00BC30FF00543084000A128A11ED
:10003800A0230A128A11203084003E300A128A1145
:10004800EB230A128A11F001F101F201F301F40124
:10005800F50183010A128A119B2A32300A128A1189
:1000680065210A128A11831203134408CB004B0836
:10007800BD0033300A128A1165210A128A118312CF
:1000880003134408CB004B08BC00BD1F4C284D2867
:100098004F28BD09BD0ABC1F522853285528BC0942
:1000A800BC0A34300A128A1165210A128A11831295
:1000B80003134408CB004B08BB0035300A128A11E1
:1000C80065210A128A11831203134408CB004B08D6
:1000D800BA00BB1F702871287328BB09BB0ABA1F56
:1000E800762877287928BA09BA0A36300A128A1186
:1000F80065210A128A11831203134408CB004B08A6
:10010800B90037300A128A1165210A128A1183123E
:1001180003134408CB004B08B800B91F942895284E
:100128009728B909B90AB81F9A289B289D28B809A1
:10013800B80A0800003083120313CA000030C9004F
:100148000030C8000030C700410840043F043E04A6
:100158000319AF28B028FD28CB01CB0AC0280130ED
:10016800C6000310BE0DBF0DC00DC10DC60BB528CE
:100178000130C6004608CB07C11FC328C428B328CE
:100188000130C6000310C70DC80DC90DCA0DC60B36
:10019800C62841084502031DDB2840084402031D08
:1001A800DB283F084302031DDB283E084202031CEC
:1001B800DE28DF28EE283E08C2023F08031C3F0F56
:1001C800C3024008031C400FC4024108031C410F2E
:1001D800C502471401300310C10CC00CBF0CBE0C83
:1001E800FF3E031DEF280130CB02031DFC28FD282C
:1001F800C4284A08C1004908C0004808BF00470889
:10020800BE00080083120313C0002A293030642975
:100218003130642932306429333064293430642918
:1002280035306429363064293730642938306429F8
:1002380039306429413064294230642943306429C3
:100248004430642945306429463064294008BE009A
:10025800BF013F08003A0319322964293E08003AD1
:1002680003190A29013A03190C29033A03190E291B
:10027800013A03191029073A03191229013A0319F7
:100288001429033A03191629013A031918290F3AB0
:1002980003191A29013A03191C29033A03191E29BB
:1002A800013A03192029073A03192229013A0319A7
:1002B8002429033A03192629013A0319282964290C
:1002C800080083120313C8000A128A11E2230A12D3
:1002D8008A11A63083120313BE000030BF000A1231
:1002E8008A11C6230A128A11831203134808C6000A
:1002F800C7014608BE004708BF000A128A11C62374
:100308000A128A110A128A11D0230A128A11A730F6
:1003180083120313BE000030BF000A128A11C623DD
:100328000A128A11003083120313BE00BF000A129A
:100338008A11CE220A128A11831203133F08CA00B7
:100348003E08C9000A128A11D9230A128A11831297
:1003580003134A08C5004908C400080083120313A0
:100368003C080F390A128A1106210A128A118312CF
:100378000313C1004108F3003C08C100410E0F39C6
:10038800C11BF0380F390A128A1106210A128A1184
:1003980083120313C2004208F2003D080F390A1203
:1003A8008A1106210A128A1183120313C100410817
:1003B800F1003D08C100410E0F39C11BF0380F395B
:1003C8000A128A1106210A128A1183120313C20023
:1003D8004208F0000800122A0130F6007608F407F7
:1003E80073082B2A0130F6007608F40772082B2AC6
:1003F8000130F6007608F40771082B2A0130F60060
:100408007608F40770082B2A831203130510F401E9
:100418000130F6007608A4070A302B2A7408F60083
:10042800F7017708003A03191A2A2B2A7608003AA6
:100438000319F029013A0319F629033A0319FC298B
:10044800013A0319022A073A0319082A2B2A080035
:100458002830831203139400831603139101831227
:1004680003134C08D0004D08D1004E08D2004F08A5
:10047800D30002300310D00DD10DD20DD30DFF3EA5
:10048800031D3E2A5308C1005208C0005108BF008E
:100498005008BE000030C5003D30C4000930C3001C
:1004A8000030C2000A128A119E200A128A11831291
:1004B80003133E08FF3E8316031393009401871528
:1004C8000716080083120313C3000A128A11E223D5
:1004D8000A128A11A63083120313BE000030BF002F
:1004E8000A128A11C6230A128A11831203134308B7
:1004F800C100C2014108BE004208BF000A128A11A9
:10050800C6230A128A11831203134008C100C201CC
:100518004108BE004208BF000A128A11C6230A1207
:100528008A110A128A11D9230A128A1108000A129A
:100538008A115E230A128A11003083120313CF0036
:100548000130CE008630CD00A030CC000A128A11CE
:100558002C220A128A110A128A1100230A128A11FD
:100568000B30831203132502031CBB2ABC2AC02AA2
:10057800A501831603130C160A128A1131200A12D8
:100588008A110A128A11B2210A128A11B42A0A128D
:100598008A110E280A128A11AF230A128A118316A9
:1005A800031391150A128A11AF230A128A118312B2
:1005B80003131308C000C1014008C2004108C3006A
:1005C8000A128A11AF230A128A11831203133E03F7
:1005D8003F04031DF02AF12AF52A8316031391120A
:1005E800F82A83160313911611168312031343086E
:1005F800BF004208BE0008000B3083120313C4007A
:100608004408C00031300A128A1166220A128A117F
:10061800073083120313C5007C30C400C40B122BAF
:10062800C50B122B0000083083120313C4004408C2
:10063800C0002D300A128A1166220A128A11073068
:1006480083120313C5007C30C400C40B292BC50BCF
:10065800292B000008008B13831203130C1E352B63
:10066800362B412B0A128A11EF210A128A118312A2
:1006780003139900831603130C120B1D442B452BEF
:100688004D2BEC30831281000130F8007808A50763
:100698000B1183128C1E512B522B542B1A088500D8
:1006A8008B177B088A007A088400790E8300FE0E77
:1006B8007E0E0900D7308316031381000F178F169B
:1006C8000F128312031385018601870188018901AE
:1006D8008316031385018601870188018901831622
:1006E8000317880189010A128A1188230A128A11BC
:1006F8008B170B17831603130C168C168312031310
:100708008C128B160B11080083160313181318127A
:1007180018158316031787111930831603139900C8
:100728009A019816831203139817181318160800BD
:100738007E088A007F0882000A128A119C230A1206
:100748008A118000840A04087D0603190034FF0A10
:100758000319FE0AA02B831603131419B42BB52B07
:10076800AF2B11081F39031DBA2BBB2BAF2B080069
:1007780037343634353434343334323431342D3438
:10078800A734A6340A128A11AF230A128A118312D7
:1007980003133E08930008000A128A11AF230A12B5
:1007A8008A1183160313911408000A128A11AF23C1
:1007B8000A128A1183160313111508000A128A11E6
:1007C800AF230A128A118316031311140800640058
:0E07D8008001840A0406031900340406EC2B89
:04400E00FD3FFF3F34
:00000001FF
